:020000040800F2
:1000000000040020B9010008BB010008BB01000882
:10001000BB010008BB010008BB010008BB010008D0
:10002000BB010008BB010008BB010008A1E00008FB
:10003000BB010008BB010008BB010008D3F30008A6
:10004000BB010008BB010008BB010008BB010008A0
:10005000BB010008BB010008C5F00008EDF0000876
:1000600015F100083DF1000865F10008BB0100082A
:10007000BB010008BB010008E9FA0008BB01000849
:100080008DF10008BB010008BB010008BB0100089E
:10009000BB010008BB010008BB010008BB01000850
:1000A000BB010008BB010008FDF6000811F70008BD
:1000B000BB010008BB010008D9F40008BB0100081F
:1000C000EDF40008F1F10008BB010008BB010008D5
:1000D000BB010008BB010008BB010008BB01000810
:1000E00072B6264880F30888254880F30988254899
:1000F00025490860022080F31488BFF36F8F0DF04C
:10010000BBFC0DF00BF94FF0553020491B4A9142D2
:100110003CBF41F8040BFAE71D49194A91423CBF24
:1001200041F8040BFAE71B491B4A1C4B9A423EBF9D
:1001300051F8040B42F8040BF8E700201849194A5B
:1001400091423CBF41F8040BFAE70DF099FC0DF029
:1001500094FC154C154DAC4203DA54F8041B884747
:10016000F9E708F0D3FA124C124DAC4203DA54F816
:10017000041B8847F9E70DF081BC00000004002053
:10018000000C00200000000808ED00E00000002046
:1001900000040020440D0108000C0020B0120020D3
:1001A000B0120020D44D0020E0000008E00000085C
:1001B000E0000008E000000892E700F000F8FEE729
:1001C0002DE9F04FC1F80CD0C3689D46BDE8F08F13
:1001D000002383F311882846A04700200DF066FE17
:1001E000FEE70DF097FD00DFFEE7000053B94AB9C6
:1001F000002908BF00281CBF4FF0FF314FF0FF302F
:1002000000F07AB9ADF1080C6DE904CE00F01AF8EF
:10021000DDF804E0DDE9022304B07047430803F091
:100220005533C01A830803F0333300F033301844D9
:1002300000EB101000F00F3000EB002000EB00404E
:10024000000E70472DE9F047089D0E4604468E4685
:10025000002B4CD18A429446B2FA82F362D953B150
:1002600002FA03FCC3F1200201FA03FE20FA02F2B3
:1002700042EA0E0E9C404FEA1C47BEFBF7F11FFA04
:100280008CF607FB11EE01FB06F0220C42EA0E424F
:1002900090420AD91CEB020201F1FF3E80F00E8170
:1002A000904240F20B8102396244121AB2FBF7F01D
:1002B00007FB102200FB06F6A4B244EA0244A64261
:1002C0000AD91CEB040400F1FF3280F0F980A64249
:1002D00040F2F6806444023840EA01400021A41B49
:1002E0001DB1DC400023C5E90043BDE8F0878B4227
:1002F00005D90DB1C5E9000100210846F5E7B3FABB
:1003000083F1002942D1B34202D3824200F2EE804F
:10031000841A66EB030201209646002DE5D0C5E95C
:10032000004EE2E7002B40F08C80881A0121170C68
:1003300096B2B0FBF7FE07FB1E00220C42EA004219
:1003400006FB0EF0904208D91CEB02020EF1FF38BA
:1003500002D2904200F2CC80C646121AB2FBF7F0ED
:1003600007FB102200FB06F6A4B244EA0244A642B0
:1003700008D91CEB040400F1FF3202D2A64200F2BD
:10038000B2801046A41B40EA0E40A9E7C1F1200745
:100390008B4022FA07FC4CEA030C26FA07FA4FEAD4
:1003A0001C48BAFBF8FE06FA01F308FB1EAA1FFA66
:1003B0008CF620FA07F400FA01F90EFB06F023434D
:1003C0001C0C44EA0A44A04202FA01F20BD91CEBCD
:1003D00004040EF1FF3A80F08480A04240F2818054
:1003E000AEF1020E6444241A98B2B4FBF8F308FB91
:1003F000134403FB06F640EA0444A64208D91CEB6A
:10040000040403F1FF3068D2A64266D9023B64447B
:1004100043EA0E40A41BA0FB02E6B4427346B0467A
:1004200052D34FD05DB1B9EB030264EB080404FA78
:1004300007F722FA01F31F43CC40C5E900740021FD
:1004400053E702FA03FCC3F12000C1404FEA1C4706
:10045000B1FBF7FE07FB1E1124FA00F09E4030436B
:10046000020C1FFA8CF642EA01420EFB06F19142A1
:1004700004FA03F409D91CEB02020EF1FF382ED264
:1004800091422CD9AEF1020E6244521AB2FBF7F13E
:1004900007FB112280B240EA024001FB06F28242D1
:1004A00008D91CEB000001F1FF3814D2824212D9A6
:1004B00002396044801A41EA0E413AE77146F4E697
:1004C000104609E7F145ADD2BEEB020366EB0C0620
:1004D0000138B046A6E74146ECE7034698E7C64632
:1004E000D3E7D6467FE7644402384BE7084614E773
:1004F000AEF1020E624430E7704700BF38B5124BD0
:1005000004461D682A6B1AB10023C2E9044338BDB2
:10051000182000F00BFA0246286378B100210B2363
:1005200001209381C2E90401084B0949094DC2E940
:10053000011300231560C2E9044338BD4621064B70
:10054000064800F053F800BF000C0020ECDE050068
:1005500034126DE60E33CDAB7C0C0108940C01080F
:1005600038B5194B1C68226B8AB113691749546955
:1005700003FB01F1164800FB0411A3FB003001331B
:1005800041EB0001C2E9043121F0004038BD1820E0
:1005900000F0CCF90246206388B1012400250B232A
:1005A0000A480C49C2E90445116001460A4D0B4C4A
:1005B00093810B4BC2E90154C2E9043138BD522189
:1005C000084B094800F012F8000C00202DF4515897
:1005D0002D7F954C0E33CDAB34126DE6ECDE05006D
:1005E0002E7F954C7C0C0108940C0108144600B534
:1005F0001A460A4B0D461B6885B0DE6803464CB1AF
:1006000007490191304607490294009500F0ACF982
:1006100000F040F804490C46F3E700BF000C00204E
:10062000C00C0108D00C0108CC0C010808B5134619
:100630000022FFF7DBFF00BF20F0030110F00300F2
:10064000C0F1000051F8043B00F1040C4FEACC0C5F
:100650006FF000021CBF22FA0CF213434FF0010CA2
:100660004CEA0C2C4CEA0C4CA3EB0C0222EA0302E1
:1006700012EACC1204BF51F8043B0430F4D0C2F1AA
:10068000000102EA0102B2FA82F2C2F11F0200EB9B
:10069000D2007047062008B500F078FD01200EF06A
:1006A00087FB00BF70B5860747D0541E002A3ED096
:1006B0000346CAB201E0013C39D303F8012B9D0780
:1006C000F9D1032C2CD9CDB205EB05250F2C1A46F8
:1006D00005EB054534D9A4F1100C2CF00F0603F1FD
:1006E000100EB6444FEA1C1CC2E90055C2E902557F
:1006F00010327245F8D10CF1010214F00C0F03EB2B
:10070000021204F00F0C13D0ACF1040323F0030326
:100710000433134442F8045B9342FBD10CF003040E
:100720002CB1C9B21C4403F8011BA342FBD170BD1C
:1007300064461346002CF4D1F9E703461446C0E79B
:10074000A446E1E788420ED98B1883420BD900EB0F
:10075000020C002A6DD0624613F801CD994202F8CE
:1007600001CDF9D170470F2A0FD8034602F1FF3CA3
:10077000002A5ED00CF1010C013B8C4411F8012BD6
:10078000614503F8012FF9D1704740EA01039B0747
:1007900050D1A2F1100370B501F1200C23F00F0528
:1007A00001F1100E00F11004AC441B095EF8105C5E
:1007B0000EF1100E44F8105C5EF81C5C103444F826
:1007C0001C5C5EF8185C44F8185C5EF8145CE64546
:1007D00044F8145CEAD1013312F00C0F01EB031161
:1007E00002F00F0400EB031328D08E46043C24F0E3
:1007F00003064FEA940C1E441C1F5EF8045B44F889
:10080000045FB442F9D10CF1010402F0030203EBDE
:10081000840301EB840102F1FF3C4AB10CF1010CAD
:10082000013B8C4411F8012B614503F8012FF9D1EC
:1008300070BD7047034602F1FF3C9BE72246EAE7A2
:10084000844641EA000313F0030349D1403A23D31D
:100850000B6803604B6843608B688360CB68C36040
:100860000B6903614B6943618B698361CB69C36128
:100870000B6A03624B6A43628B6A8362CB6AC36210
:100880000B6B03634B6B43638B6B8363CB6BC363F8
:1008900040304031403ADBD230320BD30B6803603A
:1008A0004B6843608B688360CB68C3601030103145
:1008B000103AF3D20C3205D351F8043B40F8043B14
:1008C000043AF9D2043208D0D2071CBF11F8013B18
:1008D00000F8013B01D30B8803806046704700BFDE
:1008E000082A13D38B07B1D010F00303AED0C3F1A5
:1008F0000403D21ADB071CBF11F8013B00F8013BCF
:10090000A4D331F8023B20F8023B9FE7043AD9D345
:10091000013A11F8013B00F8013BF9D20B78037062
:100920004B7843708B78837060467047024B01466A
:10093000186800F0CBBE00BF000C0020024B01463F
:10094000186800F043BF00BF000C00200CB400B5D5
:1009500083B004AB53F8042B019300F083F803B089
:100960005DF804EB02B070470EB400B5074A82B0E0
:1009700003AB0146106853F8042B019300F072F8A2
:1009800002B05DF804EB03B0704700BF000C00201C
:10099000032A30B415D941EA0004A40784460B4663
:1009A00004D0541E0FE0043A032A08D919466046C1
:1009B00053F8044B5CF8045BA542F4D0F1E76046C1
:1009C0001946541E7AB1431E0139021901E09A42B8
:1009D00009D013F8010F11F801CF6045F7D0A0EB53
:1009E0000C0030BC7047002030BC70479368013B5E
:1009F000002B936005DAD2F818C0634507DB0A299B
:100A000005D01368581C106008461970704700F034
:100A100063B900BF9BB1F8B5134406460F46541E98
:100A20005D1E01E0AC4208D03A46304614F8011F82
:100A3000FFF7DCFF431CF5D1F8BD0020F8BD002016
:100A4000704700BF936810B514461BB918460023C1
:100A5000636010BD00F08EF90023A3600023636083
:100A600010BD00BF2DE9F04FA1B08B4691461C464A
:100A7000049018B1036A002B00F01381BBF80C300E
:100A8000180740F18E80DBF81030002B00F08980D1
:100A9000002343F220020D9399F800300127824E83
:100AA0000794ADF83920002B73D04D4603E015F8BC
:100AB000013F002B7FD0252BF9D1B5EB090A7DD161
:100AC0002B78002B65D000234FF0FF320135CDE9A4
:100AD000092308930B938DF863301E9306E0254697
:100AE000089B801B07FA00F0034308932C4605225D
:100AF00014F8011B304601F0DDF9A1460028EED1C3
:100B0000089BD90644BF20228DF863201A0748BFEE
:100B10002B22297848BF8DF863202A2964D1079AAF
:100B20001168043200290792C0F296800B9169780F
:100B30002E296FD05D4C0322204601F0BBF938B15D
:100B40004022089B001B8240134309F101090893CE
:100B500019F8011B062256488DF8381001F0AAF941
:100B600000287FD0534B002B69D007A900915A462B
:100B70000498514B08A9AFF300800390039B013305
:100B800007D00D9B039A13440D9399F80030002B66
:100B90008BD1BBF80C305B060AD40D9821B0BDE8B0
:100BA000F08F5946049800F091FE00283FF470AF92
:100BB0004FF0FF30F2E7B5EB090AEAD009F1FF3850
:100BC00005954546DDF8108001E0A2453ED92C464A
:100BD0005A46404615F8011FFFF708FF023401305E
:100BE000A4EB0904F1D1D4E7A1F13002092A88BFAE
:100BF000A9469DD80B9B00E00134217803EB8303C9
:100C000002EB4303A1F13002092AF5D92E29A146AE
:100C10000B938FD199F801102A292DD1079B09F147
:100C200002001A680433002A0793B8BF4FF0FF335D
:100C300099F8021009928146B8BF09937AE7079B99
:100C4000073323F00703083307939AE70D99059DAF
:100C500051442B780D9134E7494243F002030B9144
:100C6000089364E707A900915A460498124B08A913
:100C700000F052FF039081E70023A1F13002092A1E
:100C800009F1010909933FF655AF19F8011F03EB6C
:100C9000830302EB4303A1F13002092AF5D909933A
:100CA00048E700F0F9FBE9E6000D0108080D01082E
:100CB0000C0D010800000000150A00088C4600B564
:100CC00086461346034A714610685DF804EB624697
:100CD000FFF7C8BE000C0020F8B506460D461446C6
:100CE00010B1036A002B37D0A269A389A2601A074A
:100CF00019D52369BBB122686169D31AEDB2994253
:100D00002F4620DD0133A1680139A160511C21600B
:100D1000157062699A420DD0A389DB0701D50A2DAF
:100D200008D03846F8BD2146304600F0CFFD38B92E
:100D30002369E0E72146304600F060FC0028F0D04F
:100D40004FF0FF37EDE72146304600F057FC002812
:100D5000F6D101232268D6E700F09EFBC4E700BF6E
:100D600003460A46024908681946FFF7B5BF00BFA7
:100D7000000C00209368002B00F0F0802DE9F04F6C
:100D8000B1F90CC090461CF0080F81460C4683B0A8
:100D90002BD00B694BB31CF00207D8F8006032D09F
:100DA0004FF0000A5546D4F828B0216AAB4FC5B1C0
:100DB000BD422B46524628BF3B464846D8470028EE
:100DC00040F3C280D8F8083082441B1A2D1AC8F8A4
:100DD0000830002B00F0AE80D4F828B0216A002D36
:100DE000E6D1D6E900A50836E1E72146484600F0FD
:100DF0006DFD002840F0AD80B4F90CC0D8F800605B
:100E00001CF00207CCD11CF0010A63D157462368BD
:100E1000A16818468B46002F58D01CF4007F00F0C4
:100E2000B180B9420A4600F2DD801CF4906F2FD0E9
:100E3000216962695D1A02EB420202EBD2726B1CFD
:100E400052103B44934292BF93469B461A461CF471
:100E5000806F00F0E6801146484600F037FC00281D
:100E600000F0F5802A4621690190FFF7E9FCA2898C
:100E7000019B22F4906242F08002A2815819C4F8CA
:100E800014B0ABEB05053A46BB462361A560206074
:100E90003D46002751460192FFF754FCA1682368A4
:100EA000019AA1EB0B011A44A1602260D8F8083026
:100EB000AA445B1BC8F80830002B3BD02368A1680C
:100EC00018468B46B4F90CC0002FA6D1D6E900A76E
:100ED00008369EE73846BB463D46002D40D00028E8
:100EE00045D03A46D4E904C32068AA4228BF2A461E
:100EF0006045A16804D901EB030A524500F38280E2
:100F0000934272DC5A464846216AD4F828C0E0472A
:100F1000B0F1000A18DDB7EB0A070FD00120D8F8AE
:100F20000830D344A3EB0A03A5EB0A05C8F8083040
:100F3000002BD2D1002003B0BDE8F08F21464846F7
:100F400000F05CFB0028EAD0B4F90C3043F0400319
:100F5000A3814FF0FF3003B0BDE8F08F0020704751
:100F6000756833460836002DFAD0D3F800B02A460B
:100F70000A21584600F09EFF002865D00130A0EB02
:100F80000B07AEE722699A4214D36569BD4211D8B6
:100F90006FF00043BB4228BF3B4693FBF5F352463C
:100FA00005FB03F34846A56A216AA847051ECBDD69
:100FB0007F1B7BE7B94228BF39460D46184651468C
:100FC0002A46FFF7BFFBA1682368491B2B44A16099
:100FD00023600029ECD12146484600F00FFB002891
:100FE000E6D0B1E7BB463A4652E759460192FFF7D1
:100FF000A9FB019AA36892469B1AA3602368134435
:10100000236088E759465246FFF79CFB2368214638
:1010100053444846236000F0F1FA00283FF47BAFC8
:1010200092E7484600F0B4FC034600287FF426AF60
:101030004846216900F0CAFB0C22B4F90C30C9F80B
:10104000002023F0800381E76A1C17464AE70C2240
:10105000B4F90C30C9F8002078E700BF00FCFF7F2E
:1010600038B5C46B0CB1002038BD8021054600F0B6
:101070002DFB0246E86330B1031F7C3243F8044F76
:101080009342FBD1EFE74FF0FF3038BD30B51F2959
:10109000054683B008D8C36B0C4653B153F82400FF
:1010A00043F8242003B030BD162303604FF0FF3017
:1010B000F8E78021019200F009FB019A0346E863FA
:1010C0000028F3D0011F00F17C05002041F8040F37
:1010D000A942FBD1E2E700BF1F2938B505461ED85B
:1010E000C26B0C466AB152F8213053B1012B06D0C5
:1010F000591C10D00021204642F8241098470020A7
:1011000038BD284600F088FF224601462846BDE843
:10111000384000F06DBF162301202B6038BD162328
:101120004FF0FF302B6038BD1F292BD838B5C36B6B
:101130000C460546A3B153F8242003EB84034AB1BF
:10114000511C0BD0012A07D0002520461D60904776
:10115000284638BD012038BD032038BD022038BDE7
:10116000802100F0B3FA0346E86340B100201A1F63
:1011700003F17C0142F8040F8A42FBD1DBE74FF018
:10118000FF3038BD4FF0FF30704700BF38B5134B0C
:101190001F281D681DD8EA6B044662B152F8203042
:1011A0004BB1012B05D0591C0FD0002142F8201063
:1011B0009847002038BD284600F02EFF2246014601
:1011C0002846BDE8384000F013BF162301202B60ED
:1011D00038BD16234FF0FF302B6038BD000C0020C7
:1011E000114B1F2870B51E6808D8F36B04460D46D6
:1011F0004BB153F8240043F8245070BD16233360DC
:101200004FF0FF3070BD8021304600F05FFA03469A
:10121000F0630028F4D00021021F7C3042F8041F44
:101220008242FBD1E5E700BF000C002038B50B4B34
:101230001D68EC6B0CB1002038BD8021284600F001
:1012400045FAE86338B1031F00F17C0243F8044F0C
:101250009342FBD1EFE74FF0FF3038BD000C002088
:1012600038B5174B1F281D6826D80446E86BA0B177
:1012700050F8242000EB84034AB1511C0BD0012A02
:1012800007D0002520461D609047284638BD012024
:1012900038BD032038BD022038BD8021284600F02B
:1012A00015FAE86340B10021031F00F17C0243F806
:1012B000041F9342FBD1DBE74FF0FF3038BD00BF86
:1012C000000C002000207047024A0349034800F048
:1012D000DBBA00BF500C0020FD150008040C0020F4
:1012E0000C4B416810B59942044601D000F086F9D4
:1012F000A168094B994202D0204600F07FF9E168CD
:10130000064B994204D02046BDE8104000F076B963
:1013100010BD00BFB0120020181300208013002061
:10132000002070472DE9F84300250423294C2A4961
:101330000822C4F8381104F15C002946DFF89C90BB
:10134000DFF89C80274F284EC4E90335C4E90055D7
:10135000C4E90555A5606566FFF7A4F9234B08228B
:10136000294604F1C4006367C4E90849C4E90A874F
:10137000C4E91A55C4E91E5526632567C4F8CC5044
:10138000C4F88050FFF78EF9194B2946C4F8DC30B9
:10139000082204F1680304F59670C4F88830C4E9A3
:1013A0002398C4E92576C4E93455C4E93855C4F80E
:1013B000D850C4F83451C4F8E850FFF773F904F179
:1013C000D003C4E93D98C4E93F76C4F8F030BDE8E5
:1013D000F88300BFB0120020C91200084D1F00089A
:1013E000751F0008B51F0008D91F0008090001007B
:1013F00012000200F8B5254B0646D3F83831002B11
:101400003CD0234FD7E90134013B04D51DE05A1CE1
:1014100004F1680419D0B4F90C50013B002DF6D149
:101420001C4B08222946C4E90155C4E90455E36070
:1014300065662560A56104F15C00FFF733F9C4E936
:101440000D55C4E912552046F8BD3D680DB12F4633
:10145000D8E74FF4D671304600F038F9044680B131
:1014600004230560294625460C304FF4D072A06055
:101470006360FFF717F93C602F46C3E7FFF752FFA1
:10148000BFE70C2338603360DDE700BFB0120020F7
:10149000500C00200100FFFF036A03B17047044BAA
:1014A000044AD3F838310262002BF7D13AE700BF83
:1014B000B0120020E1120008704700BF704700BF63
:1014C0000020024A024900F0DFB900BF500C0020A2
:1014D000C51200080020024A024900F0D5B900BF39
:1014E000500C002021130008F8B5B1F90C300C465F
:1014F0001E07074639D44A68002A53DDE56A002DE5
:1015000031D000223E683A6013F48052216A55D1EE
:1015100001233846A847451C024663D0B4F90C3075
:10152000E56A216A580705D56368D21A636B0BB167
:10153000236CD21A00233846A847421C40D0002210
:10154000236962602360A389DB0400D56065616B59
:101550003E6041B104F14403994202D0384600F0A4
:1015600035F9002363630020F8BD0E69002EFAD020
:101570009B0718BF00230D6808BF4B690E60AD1BA9
:101580008B600CE02B463246D4F828C03846216ADE
:10159000E047B0F1000CA5EB0C05664406DD002D1C
:1015A000F0DCE0E70A6C002AA8DCDCE7B4F90C30D8
:1015B00043F040034FF0FF30A381F8BD626DB1E707
:1015C0003968B4F90C301D29F2D80B4ACA40D50746
:1015D000EED50022626022692260DA04B7D50029C4
:1015E000B4D0B4E73B68002B98D01D2B01D0162B4C
:1015F000DCD13E60B7E700BF010040200B69B3B10A
:1016000010B5044682B008B1036A5BB1B1F90C3081
:1016100013B9002002B010BD204602B0BDE8104052
:10162000FFF762BF0191FFF737FF0199EEE7002056
:10163000704700BFB8B138B50D4A03690446156854
:101640002BB10DB12B6A53B1B4F90C300BB900209A
:1016500038BD21462846BDE83840FFF745BF28463B
:10166000FFF71AFFF0E7034A0349044800F00CB9FA
:10167000000C0020500C0020FD150008040C002078
:1016800070B5114E054633680C46BBB1214628465D
:101690000DF072FB431C01460CD0C41C24F0030463
:1016A000A04205D02846611A0DF066FB013001D03A
:1016B000204670BD4FF0FF34204670BD19460DF036
:1016C0005BFB3060E2E700BFEC1300202DE9F8433C
:1016D000CD1C25F0030508350C2D38BF0C25002D39
:1016E000064618DBA94216D8DFF8DC8000F056FB6E
:1016F000D8F80420A2B1144603E0636822467BB107
:101700001C4623685B1BF8D40B2B1FD894426368DC
:1017100054D053600CE00C2333600020BDE8F88304
:1017200029463046FFF7ACFF431C044619D005603C
:10173000304600F035FB04F10B00231D20F00700BC
:10174000C21A1CBF1B1AA350BDE8F883611994424A
:10175000256014BF5160C8F80410635163684B6082
:10176000E6E7D8F804701FB33C467F68002FFBD132
:1017700023683946304604EB03090DF0FDFA814534
:1017800016D123683046ED1A2946FFF779FF01305C
:101790000ED02368D8F804202B442360536883B10B
:1017A000A34203D01A465B689C42FBD10023B0E7FA
:1017B0000C233046336000F0F3FAAEE7C8F804308B
:1017C000B6E7C8F80470B3E7EC130020002950D046
:1017D00038B551F8043C0C1F002BB8BFE41805467F
:1017E00000F0DCFA274A13682BB1A3420CD9216818
:1017F000601883422CD0284663601460BDE83840EE
:1018000000F0CEBAA3420FD81A465B68002BF9D17C
:1018100011685018844217D02CD363605460284656
:10182000BDE8384000F0BCBA11685018A04214D08E
:1018300020D8216860188342EFD118685B6808449B
:10184000C4E900035460EAE723680B441360E6E749
:1018500018685B6808442060CDE720680144501890
:1018600083421160DBD1D3E900040144C2E90014D2
:10187000D5E770470C2328462B60BDE8384000F0C0
:101880008FBA00BFF01300202DE9F8434FF0000994
:1018900080460F461646D6E90154013D10D4A3896F
:1018A000012B08D9B4F90E30013304D0214640464B
:1018B000B84749EA0009013D6B1C04F16804EED108
:1018C0003668002EE7D14846BDE8F88338B52F4B7F
:1018D00005461B680C4613B11A6A002A4BD0B4F9AE
:1018E0000C3018071CD5226922B313F0010107D070
:1018F00000206169A0604942A1613AB1002038BD71
:10190000980758BF6169A160002AF7D1190658BF2E
:101910001046F4D543F04003A3814FF0FF3038BDAB
:10192000D9062CD55A0712D4226943F00803A381A3
:10193000002ADAD103F42071B1F5007FD5D0214619
:10194000284600F02FFAB4F90C302269CDE7616B1C
:1019500051B104F14402914204D02846FFF736FF0A
:10196000B4F90C30002262630021226923F02403C1
:10197000C4E90021D9E71846FFF78EFDAFE7092239
:1019800043F040032A60A381C7E700BF000C00209A
:101990002DE9F041144641B30AB306460D4600F066
:1019A0001FFB8442074602D8B4EB500F13D82146E0
:1019B0003046FFF78BFE804650B1BC422246294696
:1019C00028BF3A46FEF73CFF29463046FFF7FEFEA9
:1019D0004046BDE8F081A8464046BDE8F081A046FB
:1019E000FFF7F4FE4046BDE8F0811146BDE8F04146
:1019F000FFF76CBE2DE9F84F92461F460A698B68C7
:101A00000C469A42B8BF1A46CAF8002091F84330F3
:101A10000646DDF8289013B10132CAF8002022688A
:101A200091065FD5DAF800300233CAF80030226838
:101A300012F0060F11461DD1E1689942D8BF114638
:101A400018DD4FF0000804F1190B05E0E568DAF83D
:101A50000030ED1A45450CDD01235A463946304623
:101A6000C847013008F10108F0D14FF0FF30BDE860
:101A7000F88F216894F84330003B18BF01238A0691
:101A80000AD53021E21882F8431094F845105A1C08
:101A90002244023382F843103946304604F14302AF
:101AA000C8470130E1D0D4E902202368DAF80050B9
:101AB00003F00603042B21691BD08A4220DD4FF07E
:101AC0000008521A904400251A3401E0454517DAFF
:101AD0000123224639463046C847013005F1010549
:101AE000F4D1C2E712F0060F0DD0003B18BF01235E
:101AF000D2E7401B8A4220EAE078E2DC0028E2DC00
:101B00000020BDE8F88FE168DAF800309942D8BFCC
:101B1000114696DCAEE700BF2DE9F04717460A7E76
:101B200084B00C46064698460C9D01F1430C002AF1
:101B300035D0A2F15803D9B2202969D8202B67D813
:101B4000DFE813F0E60066006600660066006600E7
:101B500066006600660066006600AC007000660005
:101B6000660066006600700066006600660066003B
:101B700021008300C60066006600B6006600830090
:101B800066006600EC002B682268181D61692860F9
:101B900010061B6802D4520600F1E0801960002391
:101BA000E14623613B4621463046CDF8008003AA3A
:101BB000FFF720FF013020D04A46394630462369DE
:101BC000C047013019D02368E0689B07DDF80C900E
:101BD00018D5484516DD002504F1190A04E0E0682F
:101BE000A0EB0903AB420DDD0123524639463046D6
:101BF000C047013005F10105F1D14FF0FF3004B0CD
:101C0000BDE8F0874845B8BF484604B0BDE8F08756
:101C1000012084F8422004F142090023206184F865
:101C20004330BFE72A682368111D1806296002D4D3
:101C3000590600F195801068014600286268C0F2DC
:101C400093804FF00A0E534815E020682B6810F07F
:101C5000800F53F8041B02D1400648BF89B26F2A97
:101C600014BF4FF00A0E4FF0080E4A482B600023B5
:101C7000626884F84330002AA26051DB236823F0B5
:101C80000403236000294BD1002A7BD1E146BEF139
:101C9000080F56D0ACEB0903236183E72A680120C3
:101CA000116804322A6004F1420984F84210B4E752
:101CB0002B6800211A1D2A60D3F8009062684846FC
:101CC00000F0F8F8002863D0A0EB09006060A4E7FA
:101CD000236843F02003236078222F4884F84520AE
:101CE0002A6813F0800F52F8041B03D113F0400F41
:101CF00018BF89B22A60DA0744BF43F0200323608B
:101D000019B9236823F0200323604FF0100EAEE7CB
:101D10005823204884F845302368E1E72368DBE74F
:101D20007546E146B1FBF5F30A4605FB131A194661
:101D300010F80A30AA4209F8013DF3D2BEF1080FAB
:101D4000A8D12368DD07A5D5626823699A42A1DC82
:101D5000302309F1FF3989F800309BE719801EE72D
:101D6000B2F90010084668E72D20002AA26084F826
:101D7000430002DB23F0040323600A250548AE4636
:101D80004942CEE7037804F1420984F842307EE705
:101D9000606842E7140D0108280D0108704700BF74
:101DA000704700BF70B5B1F90C300C46990796B07A
:101DB00007D5012204F14703C4E90432236016B0B9
:101DC00070BDB4F90E100546002929DB6A460CF0F7
:101DD000E0FF002822DB4FF480612846019EFFF7D8
:101DE00075FC88B3A38906F4704643F08003A38191
:101DF0004FF48063B6F5005FC4E904032060DED1D0
:101E00002846B4F90E100CF0D0FF0028D7D0A389D3
:101E100023F0030343F00103A381D0E7B4F90C30AE
:101E200013F0800F14BF40264FF4806628463146D9
:101E3000FFF74CFC40B1A389C4E9040643F08003DA
:101E40002060A38116B070BDB4F90C309A05B6D4E9
:101E5000012123F0030304F1470243F00203C4E924
:101E60000421A3812260AAE770B50C46B1F90E10D7
:101E7000154600291E4696B00FDB6A460CF089FF16
:101E800000280ADB019B4FF4806203F47043A3F542
:101E90000053B3FA83F35B0907E0A289002312F031
:101EA000800F14BF40224FF48062002033602A600C
:101EB00016B070BD5FFA81FC810744D00346511E05
:101EC00022B909E09A0709D0013905D318460278EA
:101ED00001336245F6D17047002070471846032948
:101EE0000CD80029F8D00346014401E08B42F3D01E
:101EF000184613F8012B6245F8D1704710B50CEB6A
:101F00000C24024604EB044402E00439032915D9E9
:101F1000104652F8043B6340A3F1013E2EEA03034E
:101F200013F0803FF1D00346014401E08B4208D01A
:101F3000184613F8012B6245F8D110BD1046002950
:101F4000F1D1002010BD1146C9E700BF10B50C4605
:101F5000B1F90E100CF005FF002803DB636D03449C
:101F6000636510BDA38923F48053A38110BD00BF16
:101F7000002070472DE9F0410C46B1F90C101F46C6
:101F8000CB05054616460BD421F48051A1813B4672
:101F900032462846B4F90E10BDE8F0410CF0E8BE18
:101FA000B4F90E10022300220CF0E0FEB4F90C107C
:101FB000EAE700BF10B50C46B1F90E100CF0D6FEE2
:101FC000B4F90C30421C0EBF23F4805343F4805309
:101FD0006065A38110BD00BFB1F90E100CF0CABE40
:101FE00051F8043C181F002BBCBF0B58C018704799
:101FF00070B50026074D0446084611462E600CF0C9
:10200000DFFE431C00D070BD2B68002BFBD023608B
:1020100070BD00BFF41300200CF0DABE014B187045
:10202000704700BF16140020014B1878704700BF9E
:10203000171400200023024A1370024A13607047ED
:102040001414002004140020012208B5064B1A7055
:102050000022064B1A70FFF7EDFF054B1878BDE81C
:10206000084004F0E5BD00BF171400200014002054
:102070001614002008B50023054A1370054A137092
:10208000FFF7D8FF044B1878BDE8084004F0DCBD2A
:102090001714002000140020161400200F4B10B558
:1020A0001B7873B1E03807280BD80D4C4A79237898
:1020B00042B11BB90B4B187804F0C6FD23780133ED
:1020C000237010BD013BDBB22370002BF9D1BDE8BA
:1020D0001040044B187804F0ABBD00BF171400206B
:1020E00015140020161400203D4B1B68A3F5FC437B
:1020F000403B2D2B72D8DFE803F0171A1C1E20225C
:102100002426282A2C2E4630323436383A3C3E409B
:10211000424244484A4C4E50525456585A5C305FE2
:1021200061636567696B6D6F2E480AF057B92E4879
:10213000FBE72E48F9E72E48F7E72E48F5E72E484B
:10214000F3E72E48F1E72E48EFE72E48EDE72E485B
:10215000EBE72E48E9E72E48E7E72E48E5E72E486B
:10216000E3E72E48E1E72E48DFE72E48DDE72E487B
:10217000DBE72E48D9E72E48D7E72E48D5E72E488B
:10218000D3E72E48D1E72E48CFE72E48CDE72E489B
:10219000CBE72E48C9E72E48C7E72E48C5E72E48AB
:1021A000C3E72E48C1E72E48BFE72E48BDE72E48BB
:1021B000BBE72A2004F074BA2C48B6E72C48B4E7F1
:1021C0002C48B2E72C48B0E72C48AEE72C48ACE7E7
:1021D0002C48AAE72C48A8E72C48A6E7704700BF80
:1021E0001014002021030108220201083503010810
:1021F0004A0301085F030108B9010108BB01010896
:10220000BD010108BF01010862030108C101010805
:10221000C3010108CB010108CD010108D00101086B
:10222000D3010108D6010108D9010108DC01010828
:10223000DF010108D8020108E2010108E4010108F8
:10224000E6010108E4020108E8010108EB010108C8
:10225000EE010108F1010108F4010108F70101088C
:10226000FA010108DE020108FD010108000201086F
:102270000302010806020108090201080C02010814
:102280000F020108120201081502010818020108D4
:10229000084B1B686BB1084A12783AB147F66E6278
:1022A00093420CBF8B208A2004F0FAB903480AF04D
:1022B00095B870470C14002000140020FE0201089D
:1022C00047F66E629A4B1B68934240F08E80994BA2
:1022D0001B68A3F5FC43403B2D2B00F2BB81DFE8DC
:1022E00013F02E00310033003500370039003B0079
:1022F0003D003F004100430045005B0047004900AE
:102300004B004D004F00510053005500570059003D
:10231000350037005D005F00610063006500670005
:1023200069006B006D00B9016F00720074007600E7
:1023300078007A007C007E00800082002E007E48BB
:102340000AF04CB87D48FBE77D48F9E77D48F7E7A0
:102350007D48F5E77D48F3E77D48F1E77D48EFE705
:102360007D48EDE77D48EBE77D48E9E77D48E7E715
:102370007D48E5E77D48E3E77D48E1E77D48DFE725
:102380007D48DDE77D48DBE77D48D9E77D48D7E735
:102390007D48D5E77D48D3E77D48D1E77D48CFE745
:1023A0007D48CDE77D48CBE77D48C9E77D48C7E755
:1023B0007D48C5E77D48C3E77D48C1E77D48BFE765
:1023C0002A2004F06DB97C48BAE77C48B8E77C481D
:1023D000B6E77C48B4E77C48B2E77C48B0E77C4885
:1023E000AEE77C48ACE77C48AAE747F66F629342C9
:1023F00040F030814F4B1B68A3F5FC43403B2D2B35
:1024000000F2288101A252F823F000BF3F23000808
:1024100045230008492300084D23000851230008E4
:1024200055230008592300085D2300086123000894
:1024300065230008692300086D230008992300081C
:1024400055260008C5240008C9240008CD2400082A
:10245000D1240008D5240008D9240008DD24000870
:10246000E1240008E5240008E92400084D230008C1
:10247000ED240008F1240008F5240008F9240008E0
:10248000FD2400080125000805250008092500088D
:102490000D250008112500081525000855260008FF
:1024A000192500081D2500082125000825250008FC
:1024B000292500082D250008492600084D2600087A
:1024C0005126000845483BE7454839E7454837E786
:1024D000454835E7454833E7454831E745482FE764
:1024E00045482DE745482BE7454829E7454827E774
:1024F000454825E7454823E7454821E745481FE784
:1025000045481DE745481BE7454819E7454817E793
:10251000454815E7454813E7454811E745480FE7A3
:1025200045480DE745480BE7454809E7454807E7B3
:102530000C140020101400201A02010818020108CF
:102540001C0201081E0201082002010824020108E1
:102550002C020108360201083E0201084602010869
:1025600048020108520201085A020108E702010864
:102570005D020108600201086402010867020108A7
:102580006A0201086D020108700201087302010865
:10259000E6010108760201088402010879020108B7
:1025A0007C020108800201088302010886020108FA
:1025B000890201088C0201088F020108C10101088B
:1025C00092020108610201089502010898020108BF
:1025D0009B0201089E020108A1020108A402010851
:1025E000A7020108AA020108AD020108D4020108ED
:1025F000B0020108B3020108B6020108B9020108DD
:10260000BC020108BE020108C1020108C40201089F
:10261000C7020108CA020108CD020108A20201088E
:10262000D0020108D3020108D7020108DB02010829
:10263000DD020108E0020108E3020108E6020108E8
:10264000E90201087D020108034879E6034877E6BC
:10265000034875E6704700BFEC020108EF0201086D
:10266000F202010808B50AF0A7F90122024B18602E
:10267000024B1A7008BD00BFFC130020F8130020A5
:102680002DE9F8434FF00109674F06460D46C7F89C
:1026900000900AF091F9A6F5FC426B790446A2F18C
:1026A000400080B2002B72D0604D2D282B7832D89C
:1026B000DFF87C81042B06D8DFE803F02A03261517
:1026C0002800FFF711FD01225A4B1A705A4B1E6069
:1026D00045F6C050A8F80040FFF7C4FF00200023D3
:1026E0003B60BDE8F883554BB8F800201B889A1A68
:1026F000E31A92B29BB29A4204D2FFF7E1FD0123A2
:102700002B70E0E7FFF7F0FC0423F9E7FFF7D8FDB3
:1027100085F80090D7E76E3A92B2012A1FD8DFF809
:102720001C81042B06D8DFE803F0131803110700FF
:10273000FFF7AEFD424BCAE73D4BB8F800201B88BF
:102740009A1AE31A92B29BB29A4204D2FFF7B8FDEA
:1027500002232B70EEE7FFF79BFD0323F9E700212F
:10276000344A042B117005D8022B0DD8012B05D04B
:10277000022B06D000232B700120B0E7FFF7B4FC3A
:10278000F8E7FFF785FDF5E7FFF79AFDF2E72F2859
:10279000F2D8264D2B78013B032B9FD8DFE803F0BE
:1027A000020A112E244B1B689E4297D1FFF79CFC16
:1027B000002319E0224B1B689E428FD1FFF768FD72
:1027C000F6E71D4B1B689E4210D11C4B184A1B8814
:1027D0001288E41A9B1AA4B29BB2A3420BD3132C07
:1027E00009D8FFF781FC02232B7077E7144B1B6895
:1027F0009E427FF473AFFFF763FDD9E7104B1B6870
:102800009E420FD10A4B0D4A1B881288E41A9B1A6C
:10281000A4B29BB2A342EED3132CECD8FFF738FD41
:102820000123E1E7044BE2E7041400201414002024
:102830000A140020001400201014002008140020A6
:102840000C1400200C4B10B51B685BB90B4C2378A3
:10285000042B05D8022B0CD8012B04D0022B05D059
:102860000023237010BDFFF73FFCF9E7FFF710FDD1
:10287000F6E7FFF725FDF3E7041400201414002009
:1028800010B5094C23786BB1084B18880AF099F8F9
:1028900040F2DB53984205D900232370BDE8104075
:1028A000FFF7D0BF10BD00BFF8130020FC130020BD
:1028B00047F67A62904270B507D847F66F62904249
:1028C0001BD8E1282BD0E52845D0944C237823B1A0
:1028D000E52003F08DFE00232370914C237823B173
:1028E000E12003F03DFE002323708E4C2378002B63
:1028F0003AD0E52003F034FE2BE0A0F5FC4071381F
:102900004B79092838D8DFE810F09F0019016801D9
:10291000C10110026E02C6021B037F03C1034E7980
:10292000814C46B17D4D2B78E3B1E52003F060FE8C
:1029300000232B7016E07A4D2B7813B103F010FEB4
:102940002E70784D2B7823B1E52003F009FE00238B
:102950002B70002307E04E79744C3EB16F4D2B78FD
:10296000002BE3D101232370012070BD6C4D2B7827
:10297000002BE6D0E120E1E7002B3CD06A4B6B4D09
:102980001B786B4CE3B101266A4BE1201E7003F00B
:102990002FFE634B1E702B782BB1E52003F028FE31
:1029A0000122604B1A70637A13B12F2003F020FECE
:1029B0002F2003F0D5FD01225D4B5A720020D4E791
:1029C0002E78012316B15B4A1370E6E75A4A534D3D
:1029D00013702B781BB1E52003F00AFE2E702378CC
:1029E00013B11F2003F004FE1F2003F0B9FD0122E4
:1029F0004F4B1A70E2E74F4A1178B9B14C4C137043
:102A0000637A13B12F2003F0F3FD00256572444C67
:102A100023781BB1E12003F0A3FD2570414C2378FE
:102A200023B1E52003F09CFD00232370424B1A786C
:102A3000002AC3D000253E4C1D70237813B11F20FF
:102A400003F0D6FD2570B9E7002B3CD0364B374D4F
:102A50001B78374C5BB92E780123FEB1354A537091
:102A6000E52003F0C5FD01222E4B1A700AE0012675
:102A7000304BE1205E7003F0BBFD294B1E702B78BC
:102A8000002BEDD1E37913B12E2003F0B1FD2E2000
:102A900003F066FD0122264BDA718FE7264A1F4DAF
:102AA00053702B781BB1E52003F0A2FD2E706378E4
:102AB00013B1232003F09CFD232003F051FD0122DC
:102AC0001B4B5A707AE71B4A5178B9B1184C5370B6
:102AD000E37913B12E2003F08BFD0025E571104C36
:102AE00023781BB1E12003F03BFD25700D4C2378CA
:102AF00023B1E52003F034FD002323700E4B5A78F8
:102B0000002A3FF45BAF0025094C5D70637813B178
:102B1000232003F06DFD657050E700BF34140020E2
:102B2000331400203214002019140020181400203F
:102B3000351400201A14002026140020002B31D058
:102B4000934B944C1B7813B9934B1E78A6B101227A
:102B5000924B934D9A702B7823B1E12003F000FD46
:102B600000232B708F4D2B78002BA0D0E52003F095
:102B7000F7FC00232B709AE701228B4B8B4D9A7048
:102B80002B781BB1E52003F033FD2E70A37813B131
:102B9000242003F02DFD242003F0E2FC01227D4BD4
:102BA0009A700BE77D4A917841B17A4C93706378C3
:102BB00013B1232003F01CFD002363707A4B9A7835
:102BC000002A3FF4FBAE0025724C9D70A37813B130
:102BD000242003F00DFDA570F0E6002B3BD06C4BDC
:102BE0006C4C1B7813B96C4B1E78F6B101226B4B01
:102BF0006B4DDA702B7823B1E12003F0B1FC002398
:102C00002B70684D2B7823B1E52003F0A9FC00233D
:102C10002B70E37A13B1342003F0EAFC342003F084
:102C20009FFC01225B4BDA72C8E601225E4B5F4DCE
:102C3000DA702B781BB1E52003F0DAFC2E70E37814
:102C400013B1252003F0D4FC252003F089FC0122D8
:102C5000504BDA70B2E6514AD17841B14D4CD37045
:102C6000E37A13B1342003F0C3FC0023E3724E4B2C
:102C7000DA78002A3FF4A2AE0025464CDD70E378F6
:102C800013B1252003F0B4FCE57097E6002B31D09A
:102C90003F4B404C1B7813B93F4B1E78A6B1012225
:102CA0003E4B3F4D1A712B7823B1E12003F058FCC5
:102CB00000232B703B4D2B78002BC0D0E52003F078
:102CC0004FFC00232B70BAE70122374B374D1A71A6
:102CD0002B781BB1E52003F08BFC2E70237913B108
:102CE000262003F085FC262003F03AFC0122294B24
:102CF0001A7163E6294A117941B1264C1371E378C0
:102D000013B1252003F074FC0023E370264B1A79DD
:102D1000002A3FF453AE00251E4C1D71237913B1D8
:102D2000262003F065FC257148E6002B40D0184BA7
:102D3000184C1B7813B9184B1E78A6B10122174BFB
:102D4000174D5A712B7823B1E12003F009FC0023C1
:102D50002B70144D2B78002BC0D0E52003F000FC25
:102D600000232B70BAE701220F4B104D5A712B78BC
:102D70001BB1E52003F03CFC2E70637913B12720D2
:102D800003F036FC272003F0EBFB0123637115E60B
:102D90001914002035140020181400201A140020E3
:102DA0003314002032140020261400203414002094
:102DB0008D4A517941B18D4C5371237913B126203D
:102DC00003F016FC00232371894B5A79002A3FF443
:102DD000F5AD0025854C5D71637913B1272003F0B3
:102DE00007FC6571EAE5002B3AD0824B7F4C1B78DB
:102DF00013B9814B1E78EEB101227B4B7F4D9A7146
:102E00002B7823B1E12003F0ABFB00232B707C4D2A
:102E10002B7823B1E52003F0A3FB00232B70237B49
:102E200013B1872003F0E4FB872003F099FB012313
:102E30002373C3E501226E4B724D9A712B781BB13F
:102E4000E52003F0D5FB2E70A37913B12D2003F0FC
:102E5000CFFB2D2003F084FB0122644B9A71ADE57A
:102E6000614A917941B1614C9371237B13B1872001
:102E700003F0BEFB002323735D4B9A79002A3FF4D5
:102E80009DAD0025594C9D71A37913B12D2003F000
:102E9000AFFBA57192E573B3564B544C1B7813B935
:102EA000554B1B78F3B101224F4B544DDA712B78FF
:102EB00023B1E12003F054FB00232B70504D2B78FD
:102EC00023B1E52003F04CFB00232B70A37A13B150
:102ED000332003F08DFB332003F042FB0122434BF0
:102EE0009A726BE50125424BE520DD7103F038FB5A
:102EF000444B1D70A8E73C4AD17941B13B4CD3719A
:102F0000A37A13B1332003F073FB0023A372384B71
:102F1000DA79002A3FF452AD0025344CDD71A379F3
:102F200013B12D2003F064FBA571364B1B78002BE9
:102F30003FF444ADE52003F05BFB0022314B58E544
:102F400043B32C4B2C4D1B78284C5BB92E780123B6
:102F5000AEB1254A5372E52003F04AFB0122284B0B
:102F60001A7056E60126204BE1205E7203F040FB0A
:102F7000224B1E702B78002B3FF44BAEEBE71C4A24
:102F8000204D53722B78002BA0D0E52003F030FBAE
:102F90002E709BE7144A517AB9B1144C5372E37AFC
:102FA00013B1342003F024FB0025E572134C237881
:102FB0001BB1E12003F0D4FA2570114C237823B122
:102FC000E52003F0CDFA00232370094B5A7A002A3A
:102FD0003FF4F4AC0025054C5D72A37A13B13320A5
:102FE00003F006FBA572E9E41A1400203514002052
:102FF0002614002019140020181400203314002077
:1030000032140020341400202BB3414B414C1B7868
:1030100013B9414B1B78ABB10122404B404D9A7222
:103020002B7823B1E12003F09BFA00232B703D4D58
:103030002B78002B3FF4D3ACE52003F091FA00236A
:103040002B70CCE40125384BE5209D7203F088FA03
:10305000364B1D709AE5314A917A41B12D4C9372ED
:10306000237813B11F2003F0C3FA002323702E4BE3
:103070009A7A002A3FF4A2AC0025264C9D72A378D0
:1030800013B1242003F0B4FAA5704EE72BB3204B04
:10309000204C1B7813B9204B1B78ABB101221F4B7E
:1030A0001F4DDA722B7823B1E12003F059FA002387
:1030B0002B701C4D2B78002B3FF4E4ACE52003F083
:1030C0004FFA00232B70DDE40125174BE520DD725C
:1030D00003F046FA154B1D7065E4104AD17A41B1F0
:1030E0000C4CD372E37913B12E2003F081FA002344
:1030F000E3710D4BDA7A002A3FF460AC0025054CF1
:10310000DD72637A13B12F2003F072FA65720CE757
:103110001914002035140020181400201A1400205F
:103120003314002032140020261400203414002010
:10313000F7B504460D4608F085F82B4E2B4F7080EE
:10314000E0B285424ED90021294A0FE01CF801EB7C
:10315000BEF1FF0F01D0864518D00133DBB2092B39
:10316000F4D101310C2902F1090239D0944600232F
:10317000ECE7012906D1012B04D100227388ADF8B8
:10318000002015E07388ADF8000011E03A683AB30A
:10319000122000FB012232F8131032F81300090A42
:1031A00012F8133040BAE4D1002BEBD1ADF8003067
:1031B0008DF80230009805F099FEC0F307238DF8D2
:1031C0000400C0F307408DF805308DF806009DF827
:1031D000063020469DF804209DF8051006F088FB77
:1031E0000134ADE703B0F0BD5C0C00201C150020DD
:1031F000E90C0020032806D8D822504300F124010E
:10320000014805F031BB704742140020074B084AC3
:1032100010B51A600023074C2370607008F012F894
:1032200060806078BDE81040FFF7E4BF1C15002007
:10323000421400205C0C0020024B1878431E5842B8
:10324000584170475C0C002070B5114B1B78012B66
:103250001CD1104A126892B112244878097804FBF4
:1032600000220D4832F81140054630F8026BA642A4
:1032700007D103F0070335F8133022F8113001208D
:1032800070BD0133092BF0D10023F6E70020F7E7EA
:103290005C0C00201C15002078030108704700001A
:1032A0002DE9FF411D4B1B7893B3002201AC114661
:1032B000104606F089FB002527460A26DFF86080C5
:1032C0000A2241463846FDF7BBFA00F0FBFD0378C1
:1032D000EAB2B3FBF6F3934200D8E5B900F0F2FD91
:1032E0000378312B03D900239622194608E000F019
:1032F000E9FD03781D2B4FF00003F5D81A469621FF
:103300002078013506F0F4FA0A2D04F10104D7D132
:1033100004B0BDE8F08100231A46E6E78C3E0020A9
:10332000F5020108F8B50E4614460546314F00284F
:1033300040D009F009FB304B38601A69500402D5BF
:103340001A6911043DD41A69520402D41B691B0482
:1033500039D4294A136913F4804305D0136983F4DF
:103360000043C3F3C0335B003278062A96BF23497B
:103370000021895C224A15B91078984202D15D1A61
:1033800018BF0125022B13701FD0032B26D0012B51
:103390002DD10223337095B100F0FCFA00222146B2
:1033A00000F082F909F0D0FA164B186009F09EFA85
:1033B000012005E0386809F00BFB3228B9D800205D
:1033C000F8BD0323D0E70123CEE703233370002D9C
:1033D000F5D000F0DFFA00220621E1E70123337087
:1033E000002DECD000F0D6FA00221146D8E7002DCF
:1033F000E5D0D7E724150020000800408803010825
:103400002115002028150020014B1860704700BFCF
:103410002815002038B500F051FD244C027823789F
:103420009A4206D000F04AFD002203782370204B18
:103430001A6000F043FD0378022B16D0032B04D052
:103440000BB91B4A1360012038BD194C25689DB982
:1034500009F07AFA206000F09DFA044600F09AFA2A
:103460002A460146204601F059FC114C2068A8B9B3
:1034700009F06AFA2060E6E7284609F0A9FA47F25F
:103480002F539842F1D909F05FFA2060112000F023
:10349000CDFE44F620600AF00EFDE6E709F098FA4A
:1034A0004EF65F239842CED9E2E700BF20150020F8
:1034B0002815002013B58DF807100DF10701FFF74F
:1034C00031FF044608B9FFF7A5FF204602B010BD42
:1034D00020224FF480412DE9F0414A480BF008FFCB
:1034E00000BF00BF00BF00BF00BF00BF00BF00BFE4
:1034F00000BF00BF00BF00BF00BF00BF00BF00BFD4
:1035000000BF00BF00BF00BF00BF00BF00BF00BFC3
:10351000302585F3118803220E213A480BF008FF6D
:10352000002484F3118820224FF4004135480BF029
:10353000DFFE00BF00BF00BF00BF00BF00BF00BF75
:1035400000BF00BF00BF00BF00BF00BF00BF00BF83
:1035500000BF00BF00BF00BF00BF00BF00BF00BF73
:1035600000BF85F3118803220F2126480BF0E0FEEF
:1035700084F31188244B1B78BBB109254FF0010857
:10358000224E56F8041B4B1C0BD021F00F0701F004
:103590000F0108FA01F40122214638460BF0A8FE7B
:1035A000BC61013D15F0FF05EBD1002280214FF0F9
:1035B00080400BF09DFE00BF00BF00BF00BF00BFFA
:1035C00000BF00BF00BF00BF00BF00BF00BF00BF03
:1035D00000BF00BF00BF00BF00BF00BF00BF00BFF3
:1035E00000BF00BF00BF302383F3118801220721F1
:1035F0004FF080400BF09CFE002383F31188BDE860
:10360000F08100BF00080040121F00209003010855
:10361000072805D00E38012804D8072000F0B2BAD8
:103620000320FBE77047000008B54FF400124FF08D
:1036300080439A614FF000729A61084B1B785BB12E
:10364000112000F0F3FD44F620600AF034FCBDE8E0
:103650000840022000F096BA08BD00BF121F0020EB
:1036600010B5084C237863B100F092FA03380128B2
:103670009DBF0023032023700220BDE8104000F00E
:1036800073BA10BD121F002008B500F017FC0378B4
:10369000022B03D100F01AFC007808BD0020FCE7E3
:1036A00000F0FCBB70470000F8B50C461646054616
:1036B000F8B921BB154F3B78A34200D13EB100F0D1
:1036C000FDFB0323037000F001FC002303703C703A
:1036D00003F0B0FFACB1A5B900F0E0FB32462146E3
:1036E000284601F01BFB324621462846FFF7DAFF49
:1036F000F8BD0029DED1012000F0C8F9DAE7022088
:10370000FAE73146204600F0FFFDE7E738150020D4
:1037100037B500250446CDE9005500F0CFFB03780E
:10372000022B07D0084B2A4619780846FFF7BCFF42
:1037300003B030BD24B1082221466846FDF780F869
:10374000684600F0D9FCF3E7381500202DE9F04F6A
:103750008FB00E220021814602A8FCF7A3FF00F0E3
:10376000ADFB0378022B08D05A4B0022197808468B
:10377000FFF79AFF0FB0BDE8F08FB9F1000F00F02E
:10378000A2804FF01E0800252022494606A8FDF71A
:1037900057F8514F9DF819300DF119043B7014F88A
:1037A000010FFCF73BFD08F1FF38284418F0FF0833
:1037B000C5B2F4D1494E4FF0060BB2461AF8013F9C
:1037C0009BB300242246D3B29D420BD89AF8003016
:1037D000A34218BF8AF8008022E001331E2B04D1D7
:1037E0001C4607E000230DF1190111F8010F002814
:1037F000F3D0DCB204F138036B4413F81E0C0192D1
:1038000002F023FE40EAC404E4B2214606A808F010
:103810009CFF9AF80030019AA34202F10102D2D132
:103820000BF1FF3B1BF0FF0BC8D14946202206A835
:10383000FDF706F84FF000084FF001095FFA88F332
:103840009D420CD8264B24485B68984702A800F09C
:103850006CFC8FE701331E2B04D11C4607E00023CC
:103860000DF1190212F8011F0029F3D0DCB204F1A6
:1038700038036B4413F81E0C02F0E7FD40EAC40461
:10388000E4B2214606A808F060FF3246002312F891
:10389000011FA14202D021B93B449C7008F10108EC
:1038A000CCE70133062BF2D16F2CF7D80EAB03EB2C
:1038B000D40313F8302C04F0070409FA04F4144379
:1038C00003F8304CEAE7082249460348FCF7EAFED1
:1038D000B8E700BF38150020301500203115002052
:1038E000600C002037B50025044600958DF8045083
:1038F00000F0E4FA0378022B07D00E4B2A46197821
:103900000846FFF7D1FE03B030BD74B163788DF87F
:103910000030A3788DF80130E3788DF802306379B8
:103920008DF8033023798DF80430684600F042FCAE
:10393000E9E700BF3815002037B500250446ADF88B
:10394000065000F0BBFA0378022B07D0104B2A4632
:1039500019780846FFF7A8FE03B030BD002CFBD055
:10396000A278637843EA0223ADF80630813B022B4C
:1039700009D801220DF1060002FA03F3ADF8063072
:1039800000F004FCE8E70DF1060000F0E9FBE3E7D6
:1039900038150020014B1878704700BF38150020FB
:1039A0007047000010B5FFF7FBFF00F0BDF900F015
:1039B00097FA00F0DDFF00F083F8012803D1BDE89D
:1039C000104000F083B800F0C9F850B9054C2068E9
:1039D00004F04AF940F6B733984202D904F034F9BA
:1039E000206010BD2C150020FFF7DCBF70B5044629
:1039F00058B108F0A9FD0C4B834205D0184608F0D9
:103A00009DFD0122094B1A7070BD00F057FA037832
:103A1000022BF9D1044D20466B6898472046AB68CD
:103A2000BDE87040184700BF600C0020540F002014
:103A300038B5044688B108F087FD114C84421ED089
:103A40000122104B1A7000F051FF0F4809F00AFCD8
:103A50002046BDE8384008F071BD0B4B1B78042BA5
:103A600005D1074D6B6898472046AB6898470648D4
:103A70000AF0EDFE04480BF005FB00F03FFF38BDF7
:103A8000580F0020F63B0020804D002008B50B4A5F
:103A90001178814204D00128107002D0022806D08B
:103AA00008BDFFF7C5FF0020FFF7A0FFF8E70120E2
:103AB000FFF79CFF0020FFF7BBFFF1E7740C00202D
:103AC000014B1878704700BF740C002010B50D4BE7
:103AD0000D4C1B78052B11D1236813B904F0B4F8F1
:103AE0002060206804F0C0F840F6B733984207D948
:103AF00000232360BDE8104008F0EFBE00232360E0
:103B000010BD00BF804D00203C15002010B50B4CAF
:103B10002378052B10D1B4F84C309B0708D508F05A
:103B2000C3FE28B120460AF01DFF05480AF0C3F97C
:103B3000BDE8104008F0DABE10BD00BF804D002087
:103B4000A086010008B5044B1B78012B01D1FFF7BB
:103B5000DDFF012008BD00BF740C0020014B187868
:103B6000704700BF4C150020014B1870704700BF14
:103B70004C15002008B504F067F8014B186008BD2B
:103B800044150020014B1870704700BF42150020FB
:103B9000014B1878704700BF42150020302310B544
:103BA00083F3118800F04AFC002484F3118872B674
:103BB00000F058FD00F0D0FC04F0FAF884F311880E
:103BC00062B610BD014B1870704700BF4115002050
:103BD00010B5074C237828B11BB1FFF7CBFF0323A7
:103BE000237010BD002BFCD10122024B1A70F8E7A4
:103BF0004C15002041150020104B70B51D6800F0D9
:103C0000AFFE044620B900220D4B1A7000240DE0CF
:103C1000FFF7C0FE18B90B4B1B78042BF3D0002D17
:103C2000F4D0074E33781BB100233370204670BDAB
:103C300003F0F4FCA842E9D3F6E700BF48150020E2
:103C400041150020804D00200120704708B5FFF786
:103C5000FBFF38B1044B186804F006F8C72894BF7E
:103C60000020012008BD00BF44150020012070473E
:103C700008B5FFF7FBFF38B1044B186803F0F4FFF9
:103C8000C72894BF0020012008BD00BF44150020B4
:103C90000120704708B5FFF7FBFF38B1044B1868E7
:103CA00003F0E2FFC72894BF0020012008BD00BF39
:103CB000441500207047000008B507F03BFA0038B3
:103CC00018BF0120044B187007F01CFA08F005FE1D
:103CD000FFF7F0FF08BD00BF40150020002310B51E
:103CE000074C2370FFF7A0FCFFF758FF2378054A25
:103CF000022B18BF03231370FFF7B2FC10BD00BFE7
:103D0000421500204C15002008B5064B1B780BB15E
:103D100007F0DEF908F0EAFD01F0FAFFBDE808401F
:103D200003F088BC4015002010B5154C2378032BF8
:103D30001BD8DFE803F0020A131BFFF75DFFA0B1F9
:103D4000FFF718FF012323700FE0FFF77FFF60B13B
:103D5000FFF7B2FFFFF70EFF0223F4E7FFF788FF3C
:103D600018B1FFF707FFFFF7B9FF10BDFFF792FF8C
:103D70000028FAD0FFF7C8FFFFF7FCFE0023E2E7B8
:103D80004C150020054A064B06495A6011605160E7
:103D90009A60DA60002219611A707047341D0020A1
:103DA00050150020641500202DE9F041174C0E46F7
:103DB0006768A56807F59C784545E36804D19F428C
:103DC00006D10020BDE8F08105F108029342F7E733
:103DD0000F4B22699A1A312A9CBFA3F2CF73236139
:103DE000322EEED82369014632461846FCF728FDEC
:103DF000034645453344286023616B6002D1A760C8
:103E00000120DFE70835A560FAE700BF5015002064
:103E1000331D0020074A10B5D3689268934207D03B
:103E2000D3E90014641A2246FCF70AFD204610BDAF
:103E30000024FBE750150020074BDA6899688A4296
:103E400008D0596801F59C70824201D1D960704751
:103E50000832DA60704700BF50150020014B187817
:103E6000704700BF50150020014B1870704700BF0D
:103E7000501500200246002330B5441812F8015BAB
:103E80002B44A242DBB2F9D1435430BD012070472C
:103E900008B5FFF7FBFF08BD7047000008B54FF4F9
:103EA000E13008F0E1FFFFF76DFFBDE80840242294
:103EB00000210148FCF7F6BBC81E002000487047EF
:103EC000750C002000487047780C002000487047AF
:103ED000760C002018B111B189B208F0F5BF704717
:103EE00073B5FFF7BBFF03280FD8DFE800F04002EF
:103EF0002D3B774B186803F0B7FE0A2805D900223E
:103F00000220744B1A70FFF7AFFF734D734C08F02B
:103F1000E5FF002856D008F0CDFF2A68012A38D0E6
:103F2000022A3ED0002A5BD161282FD85F2804D80E
:103F3000A0F15A03DBB2032BE9D8012302222B6044
:103F4000674B20701A70E2E7624A13780133DBB2E4
:103F5000282B02D813700020D5E700231370FFF739
:103F60006BFFF8E7FFF768FF0020FFF77DFF5D4874
:103F7000FFF750FF01460028C7D05A48FFF7AAFFB5
:103F800003F062FE524B18600120BCE7AF28BED19F
:103F9000D3E70223524A2B6013786070013B137001
:103FA000B5E72378612B0FD163780D2B18D10A2840
:103FB00016D1FFF753FF012802D10320FFF754FF6A
:103FC00000232B6002B070BDAF2B09D16378602B4A
:103FD00006D103232B60424BA0700130187096E786
:103FE0003F49531C2B600B78A054013BDBB20B7094
:103FF000002B8CD11946394810F8016B013133443C
:104000008A42DBB2F8D8A25C9A422AD1032236490E
:1040100001A8FCF715FC032101A808F055FF204674
:104020002978FFF735FF0028CCD02378602B0AD8F9
:10403000592B16D95A3B062B13D8DFE803F0151974
:104040003A3E12124200AF2B0BD1A678202E08D197
:10405000264932462648FCF7F3FB31462448FFF751
:104060001BFF00232B6052E76278224B5A70F8E75F
:104070006378313B052BF4D801A252F823F000BF3E
:1040800099400008A1400008A740000863400008CC
:1040900063400008AD4000080122164B1A70E0E7AB
:1040A0000222144BFAE70322124BF7E70422114BCA
:1040B000F4E762780F4BDA70D3E762780D4B9A70B1
:1040C000CFE76078431E58425841FFF781FDC8E7AB
:1040D000801E00207C1E0020781E0020A41E0020D0
:1040E000741E0020C81E002000030108A71E002027
:1040F000841E0020750C00201FB50023019302933D
:10410000ADF80C30A123082201460DF105008DF811
:104110000430FCF795FB01A80921FFF7ABFE0A214B
:10412000FFF742FE05B05DF804FB30B5102585B001
:1041300004462A4600216846FCF7B4FAA2230E2260
:1041400021460DF101008DF80030FCF779FB68463F
:104150000F21FFF78FFE2946FFF726FE05B030BD81
:10416000002307B50193A323022201460DF10500A8
:104170008DF80430FCF764FB01A80321FFF77AFEF9
:104180000421FFF711FE03B05DF804FB002307B51F
:104190008DF80630A4238DF804300378022101A89D
:1041A0008DF80530FFF766FE0321FFF7FDFD03B034
:1041B0005DF804FB002307B50093ADF804308DF8DB
:1041C0000630A823052201460DF101008DF80030CC
:1041D000FCF736FB68460621FFF74CFE0721FFF788
:1041E000E3FD03B05DF804FB30B5054687B015224A
:1041F00000216846FCF756FA2846FCF71DFAC4B2BF
:10420000122C11D8A923224629460DF102008DF85F
:1042100000308DF80140FCF713FBA11C6846FFF746
:1042200029FE1521FFF7C0FD07B030BD002307B5FB
:104230008DF80630A6238DF80500022101A88DF81F
:104240000430FFF717FE0321FFF7AEFD03B05DF862
:1042500004FB30B50C468FB005463122002101A881
:10426000FCF720FA2E2C11D8AB23224629460DF15B
:1042700006008DF804308DF80540FCF7E1FAA11C2A
:1042800001A8FFF7F7FDE11CFFF78EFD0FB030BD71
:1042900030B50C468FB005463122002101A8FCF74D
:1042A00001FA2E2C11D8AC23224629460DF1060026
:1042B0008DF804308DF80540FCF7C2FAA11C01A866
:1042C000FFF7D8FDE11CFFF76FFD0FB030BD1FB544
:1042D000002304220293ADF80C30AD2340EA0140E4
:1042E00001900DEB02010DF109008DF80830FCF78B
:1042F000A7FA02A80521FFF7BDFD0621FFF754FD2F
:1043000005B05DF804FB000010B50C4606285CD82B
:10431000DFE800F0042C3740495209001120BDE8C5
:104320001040FFF783BF3020FFF780FF002C4CD0F8
:10433000264B9B782F2B12D808212548FFF789FFA1
:104340000B212448FFF7A4FF43F22D404EF2C64153
:10435000FFF7BDFF5220FFF769FF5120DFE7122171
:104360001D48FFF776FF18211C48EBE73120FFF7C7
:104370005DFF54B35220FFF759FF1948FFF734FF90
:10438000EBE73220FFF752FFFCB15220FFF74EFF60
:104390001448F3E73320FFF749FFB4B15220FFF789
:1043A00045FF1148EAE73420FFF740FF6CB1522087
:1043B000FFF73CFF0D48E1E73520FFF737FF24B159
:1043C0005220FFF733FF0A48D8E710BD750C0020D4
:1043D000040301080D030108B4030108C603010822
:1043E00019030108230301082D03010837030108FD
:1043F0004C03010810B5C4B20B2C0CBF02200120E5
:10440000FFF7C0FB2046FFF703F90AF04AFF4FF021
:10441000FF32014B5A6110BD001800400023054ACD
:104420000549C2E900130133102B02F10802F8D14B
:10443000704700BFE0490020F54300082DE9F04136
:10444000FFF7ECFF00254FF001083F4E56F8041B24
:104450004A1C0CD021F00F0701F00F0108FA01F4FB
:1044600021460522384624040AF042FFBC6101358A
:10447000EDB2092DEAD10C2401263027334D55F831
:10448000040B431C2ED000F00F01202206FA01F18C
:1044900020F00F000AF02CFF00BF00BF00BF00BFDC
:1044A00000BF00BF00BF00BF00BF00BF00BF00BF14
:1044B00000BF00BF00BF00BF00BF00BF00BF00BF04
:1044C00000BF00BF00BF00BF87F3118855F8040C80
:1044D000032200F00F0120F00F000AF029FF002353
:1044E00083F31188013C14F0FF04C8D122464FF435
:1044F000006117480AF0FCFE00BF00BF00BF00BF0C
:1045000000BF00BF00BF00BF00BF00BF00BF00BFB3
:1045100000BF00BF00BF00BF00BF00BF00BF00BFA3
:1045200000BF00BF00BF00BF302383F31188032208
:104530000B2107480AF0FCFE84F31188FEF7C8FF40
:10454000BDE8F0410AF08EBEE00301080404010852
:10455000000800407047000008B508F0DFFE124B6D
:104560004FF400619A6C114842F4C0629A649A6CEC
:104570009A6C42F480429A649A6CDA6C42F00802B7
:10458000DA64DA6C9A6C42F480529A649A6CDA6C4F
:1045900042F01002DA6440F28232DB6C0AF0A8FECC
:1045A000FFF7D8FF08BD00BF000C01400008004025
:1045B0004FF0E02238B51369012423F001031361A1
:1045C000224A234B5A6100220021930003F16043E9
:1045D00003F56143D3F80001CDB2012D94BF002053
:1045E00000F0010008B1C3F8804101312029F1D168
:1045F0000132082AE8D1174C636843F00073636006
:10460000154B1A6802F009021A601A6842F46C32FB
:1046100042F004021A6040F2B3321A620F4B43F0C8
:1046200001039847236943F00403236130BF0C4B17
:1046300043F0010398474FF0E022236923F004037D
:104640002361136943F00103136138BDFFFF0700C5
:104650000018004000ED00E000000140B00C002018
:104660007C0C0020FFF7A4BF0B8807B5A3F5FC4323
:10467000032B1FD8DFE803F002223D58374A012000
:1046800013789278C3F3420302F007020DF1070199
:104690008DF80730FEF746FE9DF80720042A09D85A
:1046A0001523D340D90705D5FFF774F90122114628
:1046B000FEF7FAFF002003B05DF804FB274A012053
:1046C00013789278C3F3420302F007020DF1070159
:1046D0008DF80730FEF726FE9DF80720042AE9D85A
:1046E0001523D340DA07E5D5FFF754F9012202215B
:1046F000DEE71A4A012013789278C3F3420302F0EE
:1047000007020DF107018DF80730FEF70BFE9DF84B
:104710000720042ACED81523D340DB07CAD5FFF7DC
:1047200039F901220321C3E70C4A0120137892785A
:10473000C3F3420302F007020DF107018DF80730C1
:10474000FEF7F0FD9DF80730DA1E012A01D9002B93
:10475000B0D1FFF71FF901220621A9E70048002088
:1047600008B540F282324FF400714FF080400AF0F9
:10477000BFFDBDE8084040F282324FF480614FF047
:1047800080400AF0B5BD000010B50A4C238803F044
:104790000E0363F0FE032380A37823F00F0343F09E
:1047A0000103A370FEF77AFD2068BDE8104002F017
:1047B000C1BE00BF00480020002310B586B08DF8B0
:1047C0000C3004938DF8143055238DF808300523F0
:1047D00004AC8DF809008DF80A108DF80B201946ED
:1047E000009402AA0F2003F03FFF06B010BD0000A6
:1047F00008B502F09CFE044B186018B9BDE80840EB
:10480000FFF7C2BF08BD00BF0048002008B5FFF792
:10481000EFFF012220214FF080400AF069FD06F0F1
:1048200011FD18B14FF0804320229A6101224FF40C
:1048300080714FF080400AF05BFD06F003FD20B16F
:104840004FF080434FF480729A6120224FF48041F0
:104850001F480AF04DFD20224FF400411C480AF089
:1048600047FD4FF400331B480122836102210AF007
:104870003FFD002280214FF080400AF039FD4FF4C7
:10488000004120224FF080400AF032FDFEF708FF81
:1048900008F05AF8104B186002F00EFF0F4B187812
:1048A0000009FEF7B3FC06F0B5FC0D4BC0F3072280
:1048B0001870C0F307405A709870FFF703FB094B5C
:1048C000027809491A700F20BDE8084003F0BEBE07
:1048D00000080040000400401C1F00200048002089
:1048E000FC470020903E0020E95C00084FF40032B5
:1048F000014B9A61704700BF000400400222014B47
:104900009A617047000400404FF080434FF400125A
:104910009A614FF080729A6107F0C4BF10B506F03B
:1049200091FC18B14FF0804320229A6106F08AFC76
:1049300020B14FF080434FF480729A61FFF72AF85C
:104940000446FFF727F8002201462046FEF7ACFE9A
:1049500007F0A9FF07F0F8FFBDE81040FEF754BDCF
:1049600008B5FFF717F8003818BF012008BD000090
:1049700038B5144D144C2868C8B108F029F86328DC
:1049800015D97020FFF752FC5520FFF74FFC572038
:10499000FFF74CFC0022217811F00E0F0CBF012014
:1049A0001046C1F34201FEF77FFE00232B60A27880
:1049B00021780020BDE8384002F00702C1F342012F
:1049C000FEF778BD1C1F002000480020574B37B56C
:1049D0001880A0F5FC400C46032800F2A480DFE814
:1049E00000F0023A5D80524A012013789278C3F3B6
:1049F000420302F007020DF107018DF80730FEF7C0
:104A000091FC9DF80720042A22D81523D340D9070A
:104A10001ED56579474C9DB1FEF7BCFF012805D036
:104A2000FEF7B8FF00220121FEF73EFE23785BB9B6
:104A300040F6B8303D4A404907F040F8207003E0A6
:104A4000207807F049F8257007F07EFFFEF7DCFCC0
:104A5000002003B030BD364A012013789278C3F3AA
:104A6000420302F007020DF107018DF80730FEF74F
:104A700059FC9DF80720042AEAD81523D340DA0709
:104A8000E6D565792B4C002DDAD0FEF783FF02289E
:104A9000CCD0FEF77FFF00220221C5E7244A012087
:104AA00013789278C3F3420302F007020DF1070175
:104AB0008DF80730FEF736FC9DF80720042AC7D88A
:104AC0001523D340DB07C3D565791A4C002DB7D029
:104AD000FEF760FF0328A9D0FEF75CFF0022032148
:104AE000A2E7134A012013789278C3F3420302F03D
:104AF00007020DF107018DF80730FEF713FC9DF852
:104B00000730DA1E012A01D9002BA1D16579094CA1
:104B1000002D95D0FEF73EFF062887D0FEF73AFF1E
:104B20000022062180E7012093E700BFFA1E002043
:104B300000480020F91E00206946000813B506F061
:104B400023FB0128374C0CD106F064FBC0F307238C
:104B500010F0FF008DF8053013D1DBB2C3B1032391
:104B6000237023780133DBB20B2B237020D1002379
:104B7000237006F0BFFA23782B4AD05C06F000FBC6
:104B800022E0782810D005D8282809D0502809D04C
:104B90000923E5E7A02809D0C828F9D10823DFE7D1
:104BA0000423DDE70523DBE70623D9E70723D7E75F
:104BB0000A2BDED106F02EFBFF21C0F307420020B6
:104BC00006F025FB06F0AEFA06F024FB2378C0F3CE
:104BD0000742092B24D8DFE803F01D2323050C0F1F
:104BE0001215181BFF21002002B0BDE8104006F08E
:104BF0000EBBFF212820F7E7FF215020F4E7FF211B
:104C00007820F1E7FF21A020EEE7FF21C820EBE7A5
:104C10000021E8E7FF2002B0BDE8104006F088BBA5
:104C2000C820F8E7F81E0020D80C0020FDF728BEA9
:104C30004FF0804238B51369224803F08001C3F376
:104C4000C01303701369204803F40042C3F3C03358
:104C5000037069B3002A0CBF642466241B4D2868C6
:104C600040BB07F071FE28602046FFF7DFFA5320B3
:104C7000FFF7DCFA01F070FA10B3154C206807F06A
:104C8000A7FEB0F5FA6F1BD907F05EFE2060FFF7B4
:104C900019F9104D03782B70FEF77CFE0446FEF7E1
:104CA00079FE2A7801462046BDE83840FFF784BDEA
:104CB0006524D3E707F08CFEB0F57A7FD1D8D9E729
:104CC00038BD00BF191F0020181F0020F41E00204F
:104CD000F01E0020903E002073B5154606461C4687
:104CE000019107F031FE084B03221860074B640066
:104CF0001E60074B01A91D60064B07481C60FBF7AF
:104D00009FFD02B070BD00BF0C1F0020001F0020DF
:104D1000081F0020041F0020FC1E0020F7B5524B86
:104D2000524D0E462F7814461A70FEF733FEC7F325
:104D30004207874213D0FEF72DFE2B7800F00700C4
:104D400060F343032B7003F00E032BB103289EBFC7
:104D5000AB7860F30203AB70286802F0EBFB711EC6
:104D600005297ED8DFE801F0031B2F43576BFF2393
:104D70006CB100228DF80630ADF804200123C82262
:104D80001120019903B0BDE8F040FFF7A5BF8DF8F1
:104D900006304FF4FA720123ADF80440F0E7FF2328
:104DA0004CB100228DF80630ADF804200123C82252
:104DB00012200199E6E78DF806304FF4FA720123CC
:104DC000ADF80440F4E7FF234CB100228DF8063023
:104DD000ADF804200123C82213200199D2E78DF8F1
:104DE00006304FF4FA720123ADF80440F4E7FF23D4
:104DF0004CB100228DF80630ADF804200123C82202
:104E000029200199BEE78DF806304FF4FA7201238C
:104E1000ADF80440F4E7FF234CB100228DF80630D2
:104E2000ADF804200123C8222A200199AAE78DF8B1
:104E300006304FF4FA720123ADF80440F4E7FF2383
:104E4000ADF804303CB10023C8228DF806300123B0
:104E50001420019996E701234FF4FA728DF8064069
:104E6000F6E703B0F0BD00BF101F0020004800208F
:104E700010B5FFF723F80378022B0CD0FEF78AFD5C
:104E80000446FEF787FD064B01461A782046FFF7D9
:104E900045FF012010BD01F014FB0020FAE700BF20
:104EA000101F002070B5164C2068D0B107F090FD9F
:104EB000144B154D1B68984208D2144B18682B6888
:104EC00013F0010313D11A46194614E007F03CFD14
:104ED0002B68206033B900232360FFF7C9FF002847
:104EE000EBD170BD013B2B60002BE6D1F3E7084905
:104EF0008B780A784978BDE8704004F0F9BC00BFAF
:104F00000C1F0020081F0020041F0020001F00208D
:104F1000FC1E0020F7B50C4C1D46237806461746AC
:104F2000019173B90123237007F00EFD6D006060DD
:104F3000032201A904F11100A760E5602674FBF7C4
:104F40007FFC03B0F0BD00BF943E002010B5134CB1
:104F500023780BB3606807F03BFDA368984210D339
:104F600007F0F2FCE36860603BB9002323706360E4
:104F70000023207C1A4619460AE0013BE360002B1F
:104F8000F3D0E368207CDB07F2D5E37C627CA17C74
:104F9000BDE8104004F0ACBC10BD00BF943E002042
:104FA000254B13B51C78B4B1244B25491A78254BF1
:104FB0001B785BB100230B60002A3AD01A46FF2110
:104FC0003F2002B0BDE8104004F092BC0B6082B3F9
:104FD000FF221946F4E7FEF775FF03780F2B26D85A
:104FE000FF238DF80640ADF80430FA2201233F205C
:104FF0000199FFF78FFFFEF765FF0378CBB9104CDF
:10500000236813B907F0A0FC2060206888B107F07E
:10501000DFFC4EF6602398420BD900230120236069
:10502000094B187002B0BDE81040FEF7CBBD044B31
:105030001C6002B010BD00BF191F0020111F00200E
:10504000EC1E0020181F0020121F00202DE9F34144
:1050500006461D46182000231746134A019100FBFF
:1050600003F112F801808C18B8F1000F17D1012359
:10507000535407F069FC6D006060032201A904F13C
:105080001100A760E5602674FBF7DAFBFF2E0ABF6C
:10509000064BC4F81480636102B0BDE8F0810133AF
:1050A000632BDCD1F8E700BFB43E0020315100088B
:1050B0001FB50024ADF800408DF80240009901238F
:1050C000FA223620FFF7C2FFADF804408DF8064003
:1050D00001990123FA224220FFF7B8FFADF80840FA
:1050E0008DF80A4002990123FA224320FFF7AEFF10
:1050F0000123FA224120ADF80C408DF80E400399AF
:1051000004B0BDE81040FFF7A1BF41F2100307B59E
:10511000ADF8043010238DF80630FA220323FF2067
:105120000199FFF793FF012003B05DF804FB000035
:105130001822124B82B002FB0030837C6E2B0ED102
:10514000427CC2B9C27CB2B9ADF804308DF80620F9
:105150000123FA22FF20019902B0FFF777BF53B96C
:10516000437C6E2B07D1C37C2BB9ADF804306F2381
:105170008DF80630ECE702B0704700BFB43E002067
:10518000094A0023114610B5147C844206D1182226
:1051900053430022C818C260CA5410BD0133632BA8
:1051A00002F11802F0D1F8E7B43E0020F7B5054649
:1051B0000C4600F0CFFD002876D0A04B1A783AB10B
:1051C00062792AB10022114610461A7004F0FCFBE5
:1051D000FEF774FE0378022B03D107F0B5FBFEF750
:1051E00013F945F223239D4207D047F621039D4240
:1051F00012D045F221239D4246D1677967B9FEF767
:105200001BF848B18E4E337823B1214628463770BB
:10521000FEF71AF80123337021462846FFF7D6FB24
:105220000646002840D0452D5ED81D2D3DD91E3D97
:10523000272D3AD8DFE815F0140230024602680242
:105240008602A002BA02D002E602FC02390039004E
:1052500039003900390012032803390039003900B8
:105260003900390039003900390039003900390076
:10527000E6000C0124013C0154016C0184019C01F5
:10528000B401CC01E401FC01FDF7D6FF0028C3D036
:10529000A5F5A443203B1F2BBED96379002BBBD0BF
:1052A00021462846FDF7D0FF0026304603B0F0BD6A
:1052B000A5F5F045213D092DF7D801A353F825F0B8
:1052C0004B5A0008AB520008AB520008AB52000822
:1052D000AB520008AB520008575900087959000832
:1052E0002B59000843590008B5F5F84F00F0F98232
:1052F00040D847F62A039D42D7D847F620039D425F
:10530000D6D8B5F5A44F00F0558316D8E32D00F09C
:10531000A983E72DC9D14B4D288801F0A6F80228B2
:1053200040F0BD83484B1B78DB06BED5FDF784FFFC
:105330000028BAD1E7206379A6E345F202239D4213
:1053400000F0608347F213039D42AED1FDF774FF76
:105350000028A9D16379002BA7D04FF4DC438DF846
:105360000600ADF80430FA220123FF200199FFF76F
:105370006DFE9AE747F603439D4200F0CD82A5F506
:10538000FC452B1F9BB2072B8FD8053D062D00F245
:10539000B182DFE815F08F038F02A002070016002C
:1053A00021002C006379E0202BB101F0D9F81D20F9
:1053B00001F0D6F879E701F01BF91D2001F018F98A
:1053C00073E76379E0201BB101F0CAF81B20EFE717
:1053D00001F00EF91B20F1E76379E0201BB101F029
:1053E000BFF80620E4E701F003F90620E6E7637959
:1053F000E0201BB101F0B4F81920D9E701F0F8F86A
:105400001920DBE7114B9B78DA067FF54EAF0D4D87
:10541000288801F02AF8022805D1637953B9AF2012
:1054200000F004FF40E7288801F01FF803287FF40C
:105430003CAFF2E7AF2000F0E3FE35E7131F00209A
:10544000AF3E0020641F00201C48002000480020C0
:105450008F4B9B78DB067FF528AF8E4D288801F0B7
:1054600004F8022803D1637943B9AA20D8E7288831
:1054700000F0FBFF03287FF418AFF4E7AA20DAE777
:10548000834B9B78DF067FF510AF824D288800F0B4
:10549000ECFF022803D1637943B9A920C0E728882B
:1054A00000F0E3FF03287FF400AFF4E7A920C2E790
:1054B000774B9B78DD067FF5F8AE764D288800F0B7
:1054C000D4FF022803D1637943B9A820A8E728882C
:1054D00000F0CBFF03287FF4E8AEF4E7A820AAE7AA
:1054E0006B4B9B78D8067FF5E0AE6A4D288800F0BC
:1054F000BCFF022803D1637943B9AD2090E7288827
:1055000000F0B3FF03287FF4D0AEF4E7AD2092E7BC
:105510005F4B9B78D9067FF5C8AE5E4D288800F0BA
:10552000A4FF022803D1637943B9AC2078E7288827
:1055300000F09BFF03287FF4B8AEF4E7AC207AE7D5
:10554000534B9B78DA067FF5B0AE524D288800F0B9
:105550008CFF022803D1637943B9AE2060E7288825
:1055600000F083FF03287FF4A0AEF4E7AE2062E7EB
:10557000474B9B78DB067FF598AE464D288800F0B8
:1055800074FF022803D1637943B9AB2048E7288828
:1055900000F06BFF03287FF488AEF4E7AB204AE706
:1055A0003B4B9B78DF067FF580AE3A4D288800F0B4
:1055B0005CFF022803D1637943B9B12030E7288822
:1055C00000F053FF03287FF470AEF4E7B12032E718
:1055D0002F4B9B78DD067FF568AE2E4D288800F0B6
:1055E00044FF022803D1637943B9B52018E728881E
:1055F00000F03BFF03287FF458AEF4E7B5201AE72C
:10560000234B9B78D8067FF550AE224D288800F0BA
:105610002CFF022803D1637943B9B22000E7288820
:1056200000F023FF03287FF440AEF4E7B22002E746
:10563000174B9B78D9067FF538AE164D288800F0B9
:1056400014FF022803D1637943B9B420E8E628881F
:1056500000F00BFF03287FF428AEF4E7B420EAE65D
:105660000B4B9B78DA067FF520AE0A4D288800F0B8
:10567000FCFE022809D0288800F0F7FE032804D099
:105680003A206379002B3CD035E0BE206379F9E7FE
:1056900000480020641F00209C4B9B78DB067FF5B0
:1056A00004AE9B4D288800F0E0FE022807D0288831
:1056B00000F0DBFE032802D03B206379E2E7BD2047
:1056C0006379DFE7914B9B78DF067FF5EEAD904D78
:1056D000288800F0CAFE022807D0288800F0C5FEFE
:1056E000032802D03C206379CCE76379E3202BB117
:1056F00000F036FF2B2000F033FFD5E500F078FFF7
:105700002B2000F075FFCFE5804B9B78DD067FF501
:10571000CCAD7F4D288800F0A8FE022807D028884D
:1057200000F0A3FE032802D03D206379AAE7637945
:10573000E3201BB100F014FF0820DCE700F058FF65
:105740000820DEE7714B9B78D8067FF5AEAD704D33
:10575000288800F08AFE022807D0288800F085FEFD
:10576000032802D03E2063798CE76379002B3FF455
:105770009BAD05F0D9FD97E5644B9B78D9067FF585
:1057800094AD634D288800F070FE022807D0288869
:1057900000F06BFE032802D03F20637972E7637943
:1057A000002B3FF481AD05F0ABFD7DE5574B9B78B9
:1057B000DA067FF57AAD564D288800F056FE0228AD
:1057C00007D0288800F051FE032802D040206379DA
:1057D00058E7AC20637955E74C4B9B78DB067FF5A7
:1057E00064AD4B4D288800F040FE022807D0288881
:1057F00000F03BFE032802D04120637942E7AE204F
:1058000063793FE7414B9B78DF067FF54EAD404D16
:10581000288800F02AFE022807D0288800F025FEFC
:10582000032802D0422063792CE7AB20637929E773
:10583000364B9B78DD067FF538AD354D288800F076
:1058400014FE022807D0288800F00FFE032802D09B
:105850004320637916E7A820637913E72B4B9B78E5
:10586000D8067FF522AD2A4D288800F0FEFD0228DB
:1058700007D0288800F0F9FD032802D0442063797E
:1058800000E7AA206379FDE6204B9B78D9067FF5D7
:105890000CAD1F4D288800F0E8FD022807D02888AD
:1058A00000F0E3FD032802D045206379EAE6A92051
:1058B0006379E7E66379002B3FF4F6AC134A9378FB
:1058C00083F01001C1F3001161F3041393701068A9
:1058D00001F030FEE8E462790E4B02B101221A7049
:1058E000E3E46379002B3FF4E0AC01F0FAFD07F04C
:1058F00087F8DAE4FDF7A0FC00287FF4D5AC6379E3
:10590000002B3FF4D1ACFFF719F9CDE4004800209B
:10591000641F0020111F002063796C4C1BB107F03D
:1059200013F82060C0E42360BEE46379002B3FF4E9
:10593000BCAC05F005FDD6287FF6B7ACFFF7B8FB89
:10594000B3E46379002B3FF4B0AC05F0F9FC5F28B9
:105950003FF6ABACF2E76379002B3FF4A6AC05F061
:10596000C9FB4FF0804320229A614FF480729A6104
:1059700005F0E6FC7728DFE76379002B3FF495AC70
:1059800005F060FC1E2811D84FF080434FF4001240
:105990009A614FF0807200249A61002320461A46D3
:1059A0001946013403F0A4FF442CF6D105F0C8FCDD
:1059B0001E28CDE76379002B3FF476AC00210E2042
:1059C000FFF7DEFB4FF6FF73414CADF804308DF866
:1059D0000630FA2203230F200199FFF737FB2088B6
:1059E00000F043FD022806D1002000F09CFC0020BE
:1059F00001F017F958E4208800F037FD03287FF400
:105A000053ACF1E76379002B3FF44EAC00210F203B
:105A1000FFF7B6FB4FF6FF732D4CADF804308DF851
:105A20000630FA2203230E200199FFF70FFB20888E
:105A300000F01BFD02283FF437AC208800F015FD74
:105A400003283FF431AC0220CFE76379002B3FF409
:105A50002CAC05F099FB1D287FF427AC1F2005F026
:105A60008FFB21E41A4D288800F0FFFC02280FD19B
:105A7000184B1B78DA067FF518ACFDF7DDFB002824
:105A80007FF413ACE320637983B100F0B9FB0CE43D
:105A9000288800F0EAFC03287FF407ACE8E72888B0
:105AA00000F0E3FC03287FF400AC3BE400F0BEFB15
:105AB000FFF7FBBB084B094A1B7813F00E0318BF16
:105AC000637903F001031370FFF7EEBB141F00208E
:105AD000641F00201C480020004800208C3E00204D
