:020000040800F2
:1000000000040020B9010008BB010008BB01000882
:10001000BB010008BB010008BB010008BB010008D0
:10002000BB010008BB010008BB010008B5E30008E4
:10003000BB010008BB010008BB010008E7F600088F
:10004000BB010008BB010008BB010008BB010008A0
:10005000BB010008BB010008D9F3000801F4000847
:1000600029F4000851F4000879F40008BB010008E5
:10007000BB010008BB010008FDFD0008BB01000832
:10008000A1F40008BB010008BB010008BB01000887
:10009000BB010008BB010008BB010008BB01000850
:1000A000BB010008BB01000811FA000825FA00088E
:1000B000BB010008BB010008EDF70008BB01000808
:1000C00001F8000805F50008BB010008BB010008A5
:1000D000BB010008BB010008BB010008BB01000810
:1000E00072B6264880F30888254880F30988254899
:1000F00025490860022080F31488BFF36F8F0DF04C
:1001000045FE0DF095FA4FF0553020491B4A9142BB
:100110003CBF41F8040BFAE71D49194A91423CBF24
:1001200041F8040BFAE71B491B4A1C4B9A423EBF9D
:1001300051F8040B42F8040BF8E700201849194A5B
:1001400091423CBF41F8040BFAE70DF023FE0DF09D
:100150001EFE154C154DAC4203DA54F8041B8847BB
:10016000F9E708F05BFC124C124DAC4203DA54F88C
:10017000041B8847F9E70DF00BBE000000040020C7
:10018000000C00200000000808ED00E00000002046
:100190000004002088100108000C0020B01200208C
:1001A000B0120020E44D0020E0000008E00000084C
:1001B000E0000008E000000892E700F000F8FEE729
:1001C0002DE9F04FC1F80CD0C3689D46BDE8F08F13
:1001D000002383F311882846A04700200DF0F0FF8C
:1001E000FEE70DF021FF00DFFEE7000053B94AB93A
:1001F000002908BF00281CBF4FF0FF314FF0FF302F
:1002000000F07AB9ADF1080C6DE904CE00F01AF8EF
:10021000DDF804E0DDE9022304B07047430803F091
:100220005533C01A830803F0333300F033301844D9
:1002300000EB101000F00F3000EB002000EB00404E
:10024000000E70472DE9F047089D0E4604468E4685
:10025000002B4CD18A429446B2FA82F362D953B150
:1002600002FA03FCC3F1200201FA03FE20FA02F2B3
:1002700042EA0E0E9C404FEA1C47BEFBF7F11FFA04
:100280008CF607FB11EE01FB06F0220C42EA0E424F
:1002900090420AD91CEB020201F1FF3E80F00E8170
:1002A000904240F20B8102396244121AB2FBF7F01D
:1002B00007FB102200FB06F6A4B244EA0244A64261
:1002C0000AD91CEB040400F1FF3280F0F980A64249
:1002D00040F2F6806444023840EA01400021A41B49
:1002E0001DB1DC400023C5E90043BDE8F0878B4227
:1002F00005D90DB1C5E9000100210846F5E7B3FABB
:1003000083F1002942D1B34202D3824200F2EE804F
:10031000841A66EB030201209646002DE5D0C5E95C
:10032000004EE2E7002B40F08C80881A0121170C68
:1003300096B2B0FBF7FE07FB1E00220C42EA004219
:1003400006FB0EF0904208D91CEB02020EF1FF38BA
:1003500002D2904200F2CC80C646121AB2FBF7F0ED
:1003600007FB102200FB06F6A4B244EA0244A642B0
:1003700008D91CEB040400F1FF3202D2A64200F2BD
:10038000B2801046A41B40EA0E40A9E7C1F1200745
:100390008B4022FA07FC4CEA030C26FA07FA4FEAD4
:1003A0001C48BAFBF8FE06FA01F308FB1EAA1FFA66
:1003B0008CF620FA07F400FA01F90EFB06F023434D
:1003C0001C0C44EA0A44A04202FA01F20BD91CEBCD
:1003D00004040EF1FF3A80F08480A04240F2818054
:1003E000AEF1020E6444241A98B2B4FBF8F308FB91
:1003F000134403FB06F640EA0444A64208D91CEB6A
:10040000040403F1FF3068D2A64266D9023B64447B
:1004100043EA0E40A41BA0FB02E6B4427346B0467A
:1004200052D34FD05DB1B9EB030264EB080404FA78
:1004300007F722FA01F31F43CC40C5E900740021FD
:1004400053E702FA03FCC3F12000C1404FEA1C4706
:10045000B1FBF7FE07FB1E1124FA00F09E4030436B
:10046000020C1FFA8CF642EA01420EFB06F19142A1
:1004700004FA03F409D91CEB02020EF1FF382ED264
:1004800091422CD9AEF1020E6244521AB2FBF7F13E
:1004900007FB112280B240EA024001FB06F28242D1
:1004A00008D91CEB000001F1FF3814D2824212D9A6
:1004B00002396044801A41EA0E413AE77146F4E697
:1004C000104609E7F145ADD2BEEB020366EB0C0620
:1004D0000138B046A6E74146ECE7034698E7C64632
:1004E000D3E7D6467FE7644402384BE7084614E773
:1004F000AEF1020E624430E7704700BF38B5124BD0
:1005000004461D682A6B1AB10023C2E9044338BDB2
:10051000182000F00BFA0246286378B100210B2363
:1005200001209381C2E90401084B0949094DC2E940
:10053000011300231560C2E9044338BD4621064B70
:10054000064800F053F800BF000C0020ECDE050068
:1005500034126DE60E33CDABC00F0108D80F010881
:1005600038B5194B1C68226B8AB113691749546955
:1005700003FB01F1164800FB0411A3FB003001331B
:1005800041EB0001C2E9043121F0004038BD1820E0
:1005900000F0CCF90246206388B1012400250B232A
:1005A0000A480C49C2E90445116001460A4D0B4C4A
:1005B00093810B4BC2E90154C2E9043138BD522189
:1005C000084B094800F012F8000C00202DF4515897
:1005D0002D7F954C0E33CDAB34126DE6ECDE05006D
:1005E0002E7F954CC00F0108D80F0108144600B5A6
:1005F0001A460A4B0D461B6885B0DE6803464CB1AF
:1006000007490191304607490294009500F0ACF982
:1006100000F040F804490C46F3E700BF000C00204E
:1006200004100108141001081010010808B5134641
:100630000022FFF7DBFF00BF20F0030110F00300F2
:10064000C0F1000051F8043B00F1040C4FEACC0C5F
:100650006FF000021CBF22FA0CF213434FF0010CA2
:100660004CEA0C2C4CEA0C4CA3EB0C0222EA0302E1
:1006700012EACC1204BF51F8043B0430F4D0C2F1AA
:10068000000102EA0102B2FA82F2C2F11F0200EB9B
:10069000D2007047062008B500F078FD01200EF06A
:1006A00011FD00BF70B5860747D0541E002A3ED00A
:1006B0000346CAB201E0013C39D303F8012B9D0780
:1006C000F9D1032C2CD9CDB205EB05250F2C1A46F8
:1006D00005EB054534D9A4F1100C2CF00F0603F1FD
:1006E000100EB6444FEA1C1CC2E90055C2E902557F
:1006F00010327245F8D10CF1010214F00C0F03EB2B
:10070000021204F00F0C13D0ACF1040323F0030326
:100710000433134442F8045B9342FBD10CF003040E
:100720002CB1C9B21C4403F8011BA342FBD170BD1C
:1007300064461346002CF4D1F9E703461446C0E79B
:10074000A446E1E788420ED98B1883420BD900EB0F
:10075000020C002A6DD0624613F801CD994202F8CE
:1007600001CDF9D170470F2A0FD8034602F1FF3CA3
:10077000002A5ED00CF1010C013B8C4411F8012BD6
:10078000614503F8012FF9D1704740EA01039B0747
:1007900050D1A2F1100370B501F1200C23F00F0528
:1007A00001F1100E00F11004AC441B095EF8105C5E
:1007B0000EF1100E44F8105C5EF81C5C103444F826
:1007C0001C5C5EF8185C44F8185C5EF8145CE64546
:1007D00044F8145CEAD1013312F00C0F01EB031161
:1007E00002F00F0400EB031328D08E46043C24F0E3
:1007F00003064FEA940C1E441C1F5EF8045B44F889
:10080000045FB442F9D10CF1010402F0030203EBDE
:10081000840301EB840102F1FF3C4AB10CF1010CAD
:10082000013B8C4411F8012B614503F8012FF9D1EC
:1008300070BD7047034602F1FF3C9BE72246EAE7A2
:10084000844641EA000313F0030349D1403A23D31D
:100850000B6803604B6843608B688360CB68C36040
:100860000B6903614B6943618B698361CB69C36128
:100870000B6A03624B6A43628B6A8362CB6AC36210
:100880000B6B03634B6B43638B6B8363CB6BC363F8
:1008900040304031403ADBD230320BD30B6803603A
:1008A0004B6843608B688360CB68C3601030103145
:1008B000103AF3D20C3205D351F8043B40F8043B14
:1008C000043AF9D2043208D0D2071CBF11F8013B18
:1008D00000F8013B01D30B8803806046704700BFDE
:1008E000082A13D38B07B1D010F00303AED0C3F1A5
:1008F0000403D21ADB071CBF11F8013B00F8013BCF
:10090000A4D331F8023B20F8023B9FE7043AD9D345
:10091000013A11F8013B00F8013BF9D20B78037062
:100920004B7843708B78837060467047024B01466A
:10093000186800F0CBBE00BF000C0020024B01463F
:10094000186800F043BF00BF000C00200CB400B5D5
:1009500083B004AB53F8042B019300F083F803B089
:100960005DF804EB02B070470EB400B5074A82B0E0
:1009700003AB0146106853F8042B019300F072F8A2
:1009800002B05DF804EB03B0704700BF000C00201C
:10099000032A30B415D941EA0004A40784460B4663
:1009A00004D0541E0FE0043A032A08D919466046C1
:1009B00053F8044B5CF8045BA542F4D0F1E76046C1
:1009C0001946541E7AB1431E0139021901E09A42B8
:1009D00009D013F8010F11F801CF6045F7D0A0EB53
:1009E0000C0030BC7047002030BC70479368013B5E
:1009F000002B936005DAD2F818C0634507DB0A299B
:100A000005D01368581C106008461970704700F034
:100A100063B900BF9BB1F8B5134406460F46541E98
:100A20005D1E01E0AC4208D03A46304614F8011F82
:100A3000FFF7DCFF431CF5D1F8BD0020F8BD002016
:100A4000704700BF936810B514461BB918460023C1
:100A5000636010BD00F08EF90023A3600023636083
:100A600010BD00BF2DE9F04FA1B08B4691461C464A
:100A7000049018B1036A002B00F01381BBF80C300E
:100A8000180740F18E80DBF81030002B00F08980D1
:100A9000002343F220020D9399F800300127824E83
:100AA0000794ADF83920002B73D04D4603E015F8BC
:100AB000013F002B7FD0252BF9D1B5EB090A7DD161
:100AC0002B78002B65D000234FF0FF320135CDE9A4
:100AD000092308930B938DF863301E9306E0254697
:100AE000089B801B07FA00F0034308932C4605225D
:100AF00014F8011B304601F0DDF9A1460028EED1C3
:100B0000089BD90644BF20228DF863201A0748BFEE
:100B10002B22297848BF8DF863202A2964D1079AAF
:100B20001168043200290792C0F296800B9169780F
:100B30002E296FD05D4C0322204601F0BBF938B15D
:100B40004022089B001B8240134309F101090893CE
:100B500019F8011B062256488DF8381001F0AAF941
:100B600000287FD0534B002B69D007A900915A462B
:100B70000498514B08A9AFF300800390039B013305
:100B800007D00D9B039A13440D9399F80030002B66
:100B90008BD1BBF80C305B060AD40D9821B0BDE8B0
:100BA000F08F5946049800F091FE00283FF470AF92
:100BB0004FF0FF30F2E7B5EB090AEAD009F1FF3850
:100BC00005954546DDF8108001E0A2453ED92C464A
:100BD0005A46404615F8011FFFF708FF023401305E
:100BE000A4EB0904F1D1D4E7A1F13002092A88BFAE
:100BF000A9469DD80B9B00E00134217803EB8303C9
:100C000002EB4303A1F13002092AF5D92E29A146AE
:100C10000B938FD199F801102A292DD1079B09F147
:100C200002001A680433002A0793B8BF4FF0FF335D
:100C300099F8021009928146B8BF09937AE7079B99
:100C4000073323F00703083307939AE70D99059DAF
:100C500051442B780D9134E7494243F002030B9144
:100C6000089364E707A900915A460498124B08A913
:100C700000F052FF039081E70023A1F13002092A1E
:100C800009F1010909933FF655AF19F8011F03EB6C
:100C9000830302EB4303A1F13002092AF5D909933A
:100CA00048E700F0F9FBE9E6441001084C100108A0
:100CB0005010010800000000150A00088C4600B51D
:100CC00086461346034A714610685DF804EB624697
:100CD000FFF7C8BE000C0020F8B506460D461446C6
:100CE00010B1036A002B37D0A269A389A2601A074A
:100CF00019D52369BBB122686169D31AEDB2994253
:100D00002F4620DD0133A1680139A160511C21600B
:100D1000157062699A420DD0A389DB0701D50A2DAF
:100D200008D03846F8BD2146304600F0CFFD38B92E
:100D30002369E0E72146304600F060FC0028F0D04F
:100D40004FF0FF37EDE72146304600F057FC002812
:100D5000F6D101232268D6E700F09EFBC4E700BF6E
:100D600003460A46024908681946FFF7B5BF00BFA7
:100D7000000C00209368002B00F0F0802DE9F04F6C
:100D8000B1F90CC090461CF0080F81460C4683B0A8
:100D90002BD00B694BB31CF00207D8F8006032D09F
:100DA0004FF0000A5546D4F828B0216AAB4FC5B1C0
:100DB000BD422B46524628BF3B464846D8470028EE
:100DC00040F3C280D8F8083082441B1A2D1AC8F8A4
:100DD0000830002B00F0AE80D4F828B0216A002D36
:100DE000E6D1D6E900A50836E1E72146484600F0FD
:100DF0006DFD002840F0AD80B4F90CC0D8F800605B
:100E00001CF00207CCD11CF0010A63D157462368BD
:100E1000A16818468B46002F58D01CF4007F00F0C4
:100E2000B180B9420A4600F2DD801CF4906F2FD0E9
:100E3000216962695D1A02EB420202EBD2726B1CFD
:100E400052103B44934292BF93469B461A461CF471
:100E5000806F00F0E6801146484600F037FC00281D
:100E600000F0F5802A4621690190FFF7E9FCA2898C
:100E7000019B22F4906242F08002A2815819C4F8CA
:100E800014B0ABEB05053A46BB462361A560206074
:100E90003D46002751460192FFF754FCA1682368A4
:100EA000019AA1EB0B011A44A1602260D8F8083026
:100EB000AA445B1BC8F80830002B3BD02368A1680C
:100EC00018468B46B4F90CC0002FA6D1D6E900A76E
:100ED00008369EE73846BB463D46002D40D00028E8
:100EE00045D03A46D4E904C32068AA4228BF2A461E
:100EF0006045A16804D901EB030A524500F38280E2
:100F0000934272DC5A464846216AD4F828C0E0472A
:100F1000B0F1000A18DDB7EB0A070FD00120D8F8AE
:100F20000830D344A3EB0A03A5EB0A05C8F8083040
:100F3000002BD2D1002003B0BDE8F08F21464846F7
:100F400000F05CFB0028EAD0B4F90C3043F0400319
:100F5000A3814FF0FF3003B0BDE8F08F0020704751
:100F6000756833460836002DFAD0D3F800B02A460B
:100F70000A21584600F09EFF002865D00130A0EB02
:100F80000B07AEE722699A4214D36569BD4211D8B6
:100F90006FF00043BB4228BF3B4693FBF5F352463C
:100FA00005FB03F34846A56A216AA847051ECBDD69
:100FB0007F1B7BE7B94228BF39460D46184651468C
:100FC0002A46FFF7BFFBA1682368491B2B44A16099
:100FD00023600029ECD12146484600F00FFB002891
:100FE000E6D0B1E7BB463A4652E759460192FFF7D1
:100FF000A9FB019AA36892469B1AA3602368134435
:10100000236088E759465246FFF79CFB2368214638
:1010100053444846236000F0F1FA00283FF47BAFC8
:1010200092E7484600F0B4FC034600287FF426AF60
:101030004846216900F0CAFB0C22B4F90C30C9F80B
:10104000002023F0800381E76A1C17464AE70C2240
:10105000B4F90C30C9F8002078E700BF00FCFF7F2E
:1010600038B5C46B0CB1002038BD8021054600F0B6
:101070002DFB0246E86330B1031F7C3243F8044F76
:101080009342FBD1EFE74FF0FF3038BD30B51F2959
:10109000054683B008D8C36B0C4653B153F82400FF
:1010A00043F8242003B030BD162303604FF0FF3017
:1010B000F8E78021019200F009FB019A0346E863FA
:1010C0000028F3D0011F00F17C05002041F8040F37
:1010D000A942FBD1E2E700BF1F2938B505461ED85B
:1010E000C26B0C466AB152F8213053B1012B06D0C5
:1010F000591C10D00021204642F8241098470020A7
:1011000038BD284600F088FF224601462846BDE843
:10111000384000F06DBF162301202B6038BD162328
:101120004FF0FF302B6038BD1F292BD838B5C36B6B
:101130000C460546A3B153F8242003EB84034AB1BF
:10114000511C0BD0012A07D0002520461D60904776
:10115000284638BD012038BD032038BD022038BDE7
:10116000802100F0B3FA0346E86340B100201A1F63
:1011700003F17C0142F8040F8A42FBD1DBE74FF018
:10118000FF3038BD4FF0FF30704700BF38B5134B0C
:101190001F281D681DD8EA6B044662B152F8203042
:1011A0004BB1012B05D0591C0FD0002142F8201063
:1011B0009847002038BD284600F02EFF2246014601
:1011C0002846BDE8384000F013BF162301202B60ED
:1011D00038BD16234FF0FF302B6038BD000C0020C7
:1011E000114B1F2870B51E6808D8F36B04460D46D6
:1011F0004BB153F8240043F8245070BD16233360DC
:101200004FF0FF3070BD8021304600F05FFA03469A
:10121000F0630028F4D00021021F7C3042F8041F44
:101220008242FBD1E5E700BF000C002038B50B4B34
:101230001D68EC6B0CB1002038BD8021284600F001
:1012400045FAE86338B1031F00F17C0243F8044F0C
:101250009342FBD1EFE74FF0FF3038BD000C002088
:1012600038B5174B1F281D6826D80446E86BA0B177
:1012700050F8242000EB84034AB1511C0BD0012A02
:1012800007D0002520461D609047284638BD012024
:1012900038BD032038BD022038BD8021284600F02B
:1012A00015FAE86340B10021031F00F17C0243F806
:1012B000041F9342FBD1DBE74FF0FF3038BD00BF86
:1012C000000C002000207047024A0349034800F048
:1012D000DBBA00BF500C0020FD150008040C0020F4
:1012E0000C4B416810B59942044601D000F086F9D4
:1012F000A168094B994202D0204600F07FF9E168CD
:10130000064B994204D02046BDE8104000F076B963
:1013100010BD00BFB0120020181300208013002061
:10132000002070472DE9F84300250423294C2A4961
:101330000822C4F8381104F15C002946DFF89C90BB
:10134000DFF89C80274F284EC4E90335C4E90055D7
:10135000C4E90555A5606566FFF7A4F9234B08228B
:10136000294604F1C4006367C4E90849C4E90A874F
:10137000C4E91A55C4E91E5526632567C4F8CC5044
:10138000C4F88050FFF78EF9194B2946C4F8DC30B9
:10139000082204F1680304F59670C4F88830C4E9A3
:1013A0002398C4E92576C4E93455C4E93855C4F80E
:1013B000D850C4F83451C4F8E850FFF773F904F179
:1013C000D003C4E93D98C4E93F76C4F8F030BDE8E5
:1013D000F88300BFB0120020C91200084D1F00089A
:1013E000751F0008B51F0008D91F0008090001007B
:1013F00012000200F8B5254B0646D3F83831002B11
:101400003CD0234FD7E90134013B04D51DE05A1CE1
:1014100004F1680419D0B4F90C50013B002DF6D149
:101420001C4B08222946C4E90155C4E90455E36070
:1014300065662560A56104F15C00FFF733F9C4E936
:101440000D55C4E912552046F8BD3D680DB12F4633
:10145000D8E74FF4D671304600F038F9044680B131
:1014600004230560294625460C304FF4D072A06055
:101470006360FFF717F93C602F46C3E7FFF752FFA1
:10148000BFE70C2338603360DDE700BFB0120020F7
:10149000500C00200100FFFF036A03B17047044BAA
:1014A000044AD3F838310262002BF7D13AE700BF83
:1014B000B0120020E1120008704700BF704700BF63
:1014C0000020024A024900F0DFB900BF500C0020A2
:1014D000C51200080020024A024900F0D5B900BF39
:1014E000500C002021130008F8B5B1F90C300C465F
:1014F0001E07074639D44A68002A53DDE56A002DE5
:1015000031D000223E683A6013F48052216A55D1EE
:1015100001233846A847451C024663D0B4F90C3075
:10152000E56A216A580705D56368D21A636B0BB167
:10153000236CD21A00233846A847421C40D0002210
:10154000236962602360A389DB0400D56065616B59
:101550003E6041B104F14403994202D0384600F0A4
:1015600035F9002363630020F8BD0E69002EFAD020
:101570009B0718BF00230D6808BF4B690E60AD1BA9
:101580008B600CE02B463246D4F828C03846216ADE
:10159000E047B0F1000CA5EB0C05664406DD002D1C
:1015A000F0DCE0E70A6C002AA8DCDCE7B4F90C30D8
:1015B00043F040034FF0FF30A381F8BD626DB1E707
:1015C0003968B4F90C301D29F2D80B4ACA40D50746
:1015D000EED50022626022692260DA04B7D50029C4
:1015E000B4D0B4E73B68002B98D01D2B01D0162B4C
:1015F000DCD13E60B7E700BF010040200B69B3B10A
:1016000010B5044682B008B1036A5BB1B1F90C3081
:1016100013B9002002B010BD204602B0BDE8104052
:10162000FFF762BF0191FFF737FF0199EEE7002056
:10163000704700BFB8B138B50D4A03690446156854
:101640002BB10DB12B6A53B1B4F90C300BB900209A
:1016500038BD21462846BDE83840FFF745BF28463B
:10166000FFF71AFFF0E7034A0349044800F00CB9FA
:10167000000C0020500C0020FD150008040C002078
:1016800070B5114E054633680C46BBB1214628465D
:101690000DF0FCFC431C01460CD0C41C24F00304D8
:1016A000A04205D02846611A0DF0F0FC013001D0AF
:1016B000204670BD4FF0FF34204670BD19460DF036
:1016C000E5FC3060E2E700BFEC1300202DE9F843B1
:1016D000CD1C25F0030508350C2D38BF0C25002D39
:1016E000064618DBA94216D8DFF8DC8000F056FB6E
:1016F000D8F80420A2B1144603E0636822467BB107
:101700001C4623685B1BF8D40B2B1FD894426368DC
:1017100054D053600CE00C2333600020BDE8F88304
:1017200029463046FFF7ACFF431C044619D005603C
:10173000304600F035FB04F10B00231D20F00700BC
:10174000C21A1CBF1B1AA350BDE8F883611994424A
:10175000256014BF5160C8F80410635163684B6082
:10176000E6E7D8F804701FB33C467F68002FFBD132
:1017700023683946304604EB03090DF087FC8145A8
:1017800016D123683046ED1A2946FFF779FF01305C
:101790000ED02368D8F804202B442360536883B10B
:1017A000A34203D01A465B689C42FBD10023B0E7FA
:1017B0000C233046336000F0F3FAAEE7C8F804308B
:1017C000B6E7C8F80470B3E7EC130020002950D046
:1017D00038B551F8043C0C1F002BB8BFE41805467F
:1017E00000F0DCFA274A13682BB1A3420CD9216818
:1017F000601883422CD0284663601460BDE83840EE
:1018000000F0CEBAA3420FD81A465B68002BF9D17C
:1018100011685018844217D02CD363605460284656
:10182000BDE8384000F0BCBA11685018A04214D08E
:1018300020D8216860188342EFD118685B6808449B
:10184000C4E900035460EAE723680B441360E6E749
:1018500018685B6808442060CDE720680144501890
:1018600083421160DBD1D3E900040144C2E90014D2
:10187000D5E770470C2328462B60BDE8384000F0C0
:101880008FBA00BFF01300202DE9F8434FF0000994
:1018900080460F461646D6E90154013D10D4A3896F
:1018A000012B08D9B4F90E30013304D0214640464B
:1018B000B84749EA0009013D6B1C04F16804EED108
:1018C0003668002EE7D14846BDE8F88338B52F4B7F
:1018D00005461B680C4613B11A6A002A4BD0B4F9AE
:1018E0000C3018071CD5226922B313F0010107D070
:1018F00000206169A0604942A1613AB1002038BD71
:10190000980758BF6169A160002AF7D1190658BF2E
:101910001046F4D543F04003A3814FF0FF3038BDAB
:10192000D9062CD55A0712D4226943F00803A381A3
:10193000002ADAD103F42071B1F5007FD5D0214619
:10194000284600F02FFAB4F90C302269CDE7616B1C
:1019500051B104F14402914204D02846FFF736FF0A
:10196000B4F90C30002262630021226923F02403C1
:10197000C4E90021D9E71846FFF78EFDAFE7092239
:1019800043F040032A60A381C7E700BF000C00209A
:101990002DE9F041144641B30AB306460D4600F066
:1019A0001FFB8442074602D8B4EB500F13D82146E0
:1019B0003046FFF78BFE804650B1BC422246294696
:1019C00028BF3A46FEF73CFF29463046FFF7FEFEA9
:1019D0004046BDE8F081A8464046BDE8F081A046FB
:1019E000FFF7F4FE4046BDE8F0811146BDE8F04146
:1019F000FFF76CBE2DE9F84F92461F460A698B68C7
:101A00000C469A42B8BF1A46CAF8002091F84330F3
:101A10000646DDF8289013B10132CAF8002022688A
:101A200091065FD5DAF800300233CAF80030226838
:101A300012F0060F11461DD1E1689942D8BF114638
:101A400018DD4FF0000804F1190B05E0E568DAF83D
:101A50000030ED1A45450CDD01235A463946304623
:101A6000C847013008F10108F0D14FF0FF30BDE860
:101A7000F88F216894F84330003B18BF01238A0691
:101A80000AD53021E21882F8431094F845105A1C08
:101A90002244023382F843103946304604F14302AF
:101AA000C8470130E1D0D4E902202368DAF80050B9
:101AB00003F00603042B21691BD08A4220DD4FF07E
:101AC0000008521A904400251A3401E0454517DAFF
:101AD0000123224639463046C847013005F1010549
:101AE000F4D1C2E712F0060F0DD0003B18BF01235E
:101AF000D2E7401B8A4220EAE078E2DC0028E2DC00
:101B00000020BDE8F88FE168DAF800309942D8BFCC
:101B1000114696DCAEE700BF2DE9F04717460A7E76
:101B200084B00C46064698460C9D01F1430C002AF1
:101B300035D0A2F15803D9B2202969D8202B67D813
:101B4000DFE813F0E60066006600660066006600E7
:101B500066006600660066006600AC007000660005
:101B6000660066006600700066006600660066003B
:101B700021008300C60066006600B6006600830090
:101B800066006600EC002B682268181D61692860F9
:101B900010061B6802D4520600F1E0801960002391
:101BA000E14623613B4621463046CDF8008003AA3A
:101BB000FFF720FF013020D04A46394630462369DE
:101BC000C047013019D02368E0689B07DDF80C900E
:101BD00018D5484516DD002504F1190A04E0E0682F
:101BE000A0EB0903AB420DDD0123524639463046D6
:101BF000C047013005F10105F1D14FF0FF3004B0CD
:101C0000BDE8F0874845B8BF484604B0BDE8F08756
:101C1000012084F8422004F142090023206184F865
:101C20004330BFE72A682368111D1806296002D4D3
:101C3000590600F195801068014600286268C0F2DC
:101C400093804FF00A0E534815E020682B6810F07F
:101C5000800F53F8041B02D1400648BF89B26F2A97
:101C600014BF4FF00A0E4FF0080E4A482B600023B5
:101C7000626884F84330002AA26051DB236823F0B5
:101C80000403236000294BD1002A7BD1E146BEF139
:101C9000080F56D0ACEB0903236183E72A680120C3
:101CA000116804322A6004F1420984F84210B4E752
:101CB0002B6800211A1D2A60D3F8009062684846FC
:101CC00000F0F8F8002863D0A0EB09006060A4E7FA
:101CD000236843F02003236078222F4884F84520AE
:101CE0002A6813F0800F52F8041B03D113F0400F41
:101CF00018BF89B22A60DA0744BF43F0200323608B
:101D000019B9236823F0200323604FF0100EAEE7CB
:101D10005823204884F845302368E1E72368DBE74F
:101D20007546E146B1FBF5F30A4605FB131A194661
:101D300010F80A30AA4209F8013DF3D2BEF1080FAB
:101D4000A8D12368DD07A5D5626823699A42A1DC82
:101D5000302309F1FF3989F800309BE719801EE72D
:101D6000B2F90010084668E72D20002AA26084F826
:101D7000430002DB23F0040323600A250548AE4636
:101D80004942CEE7037804F1420984F842307EE705
:101D9000606842E7581001086C100108704700BFE6
:101DA000704700BF70B5B1F90C300C46990796B07A
:101DB00007D5012204F14703C4E90432236016B0B9
:101DC00070BDB4F90E100546002929DB6A460DF0F6
:101DD0006AF9002822DB4FF480612846019EFFF754
:101DE00075FC88B3A38906F4704643F08003A38191
:101DF0004FF48063B6F5005FC4E904032060DED1D0
:101E00002846B4F90E100DF05AF90028D7D0A3894E
:101E100023F0030343F00103A381D0E7B4F90C30AE
:101E200013F0800F14BF40264FF4806628463146D9
:101E3000FFF74CFC40B1A389C4E9040643F08003DA
:101E40002060A38116B070BDB4F90C309A05B6D4E9
:101E5000012123F0030304F1470243F00203C4E924
:101E60000421A3812260AAE770B50C46B1F90E10D7
:101E7000154600291E4696B00FDB6A460DF013F991
:101E800000280ADB019B4FF4806203F47043A3F542
:101E90000053B3FA83F35B0907E0A289002312F031
:101EA000800F14BF40224FF48062002033602A600C
:101EB00016B070BD5FFA81FC810744D00346511E05
:101EC00022B909E09A0709D0013905D318460278EA
:101ED00001336245F6D17047002070471846032948
:101EE0000CD80029F8D00346014401E08B42F3D01E
:101EF000184613F8012B6245F8D1704710B50CEB6A
:101F00000C24024604EB044402E00439032915D9E9
:101F1000104652F8043B6340A3F1013E2EEA03034E
:101F200013F0803FF1D00346014401E08B4208D01A
:101F3000184613F8012B6245F8D110BD1046002950
:101F4000F1D1002010BD1146C9E700BF10B50C4605
:101F5000B1F90E100DF08FF8002803DB636D034418
:101F6000636510BDA38923F48053A38110BD00BF16
:101F7000002070472DE9F0410C46B1F90C101F46C6
:101F8000CB05054616460BD421F48051A1813B4672
:101F900032462846B4F90E10BDE8F0410DF072B893
:101FA000B4F90E10022300220DF06AF8B4F90C10F7
:101FB000EAE700BF10B50C46B1F90E100DF060F85D
:101FC000B4F90C30421C0EBF23F4805343F4805309
:101FD0006065A38110BD00BFB1F90E100DF054B8BB
:101FE00051F8043C181F002BBCBF0B58C018704799
:101FF00070B50026074D0446084611462E600DF0C8
:1020000069F8431C00D070BD2B68002BFBD0236007
:1020100070BD00BFF41300200DF064B8014B1870C0
:10202000704700BF16140020014B1878704700BF9E
:10203000171400200023024A1370024A13607047ED
:102040001414002004140020012208B5064B1A7055
:102050000022064B1A70FFF7EDFF054B1878BDE81C
:10206000084004F07DBF00BF1714002000140020BA
:102070001614002008B50023054A1370054A137092
:10208000FFF7D8FF044B1878BDE8084004F074BF90
:102090001714002000140020161400200F4B10B558
:1020A0001B7873B1E03807280BD80D4C4A79237898
:1020B00042B11BB90B4B187804F05EFF2378013353
:1020C000237010BD013BDBB22370002BF9D1BDE8BA
:1020D0001040044B187804F043BF00BF17140020D1
:1020E00015140020161400203D4B1B68A3F5FC437B
:1020F000403B2D2B72D8DFE803F0171A1C1E20225C
:102100002426282A2C2E4630323436383A3C3E409B
:10211000424244484A4C4E50525456585A5C305FE2
:1021200061636567696B6D6F2E480AF0E1BA2E48EE
:10213000FBE72E48F9E72E48F7E72E48F5E72E484B
:10214000F3E72E48F1E72E48EFE72E48EDE72E485B
:10215000EBE72E48E9E72E48E7E72E48E5E72E486B
:10216000E3E72E48E1E72E48DFE72E48DDE72E487B
:10217000DBE72E48D9E72E48D7E72E48D5E72E488B
:10218000D3E72E48D1E72E48CFE72E48CDE72E489B
:10219000CBE72E48C9E72E48C7E72E48C5E72E48AB
:1021A000C3E72E48C1E72E48BFE72E48BDE72E48BB
:1021B000BBE72A2004F000BC2C48B6E72C48B4E763
:1021C0002C48B2E72C48B0E72C48AEE72C48ACE7E7
:1021D0002C48AAE72C48A8E72C48A6E7704700BF80
:1021E00010140020350601083605010849060108CB
:1021F0005E06010873060108CD040108CF0401083A
:10220000D1040108D304010876060108D5040108A9
:10221000D7040108DF040108E1040108E40401080F
:10222000E7040108EA040108ED040108F0040108CC
:10223000F3040108EC050108F6040108F80401089C
:10224000FA040108F8050108FC040108FF0401086C
:102250000205010805050108080501080B0501082C
:102260000E050108F2050108110501081405010811
:10227000170501081A0501081D05010820050108B8
:102280002305010826050108290501082C05010878
:1022900010B50C4C23686BB10B4A12786AB10B4A2B
:1022A00012683AB147F66E6293420CBF8B208A20C7
:1022B00004F082FB0023236010BD05480AF018FAE1
:1022C000F8E700BF0C1400200014002010140020B8
:1022D0001206010847F66E6210B58E4C23689342D1
:1022E00079D18D4B1B68A3F5FC43403B2D2B5DD86A
:1022F000DFE803F0171B1D1F21232527292B2D2F76
:102300004531333537393B3D3F41431F2147494B29
:102310004D4F515355575C595F61636567696B6DEC
:102320006F177E480AF0E4F940E07D48FAE77D48FF
:10233000F8E77D48F6E77D48F4E77D48F2E77D4819
:10234000F0E77D48EEE77D48ECE77D48EAE77D4829
:10235000E8E77D48E6E77D48E4E77D48E2E77D4839
:10236000E0E77D48DEE77D48DCE77D48DAE77D4849
:10237000D8E77D48D6E77D48D4E77D48D2E77D4859
:10238000D0E77D48CEE77D48CCE77D48CAE77D4869
:10239000C8E77D48C6E77D48C4E77D48C2E77D4879
:1023A000C0E77D48BEE72A2004F006FB0023236037
:1023B00010BD7A48B6E77A48B4E77A48B2E77A4877
:1023C000B0E77A48AEE77A48ACE77A48AAE77A48B5
:1023D000A8E77A48A6E747F66F629342E6D14E4BEC
:1023E0001B68A3F5FC43403B2D2BDFD801A252F81C
:1023F00023F000BF232300082B2300082F2300080D
:1024000033230008372300083B2300083F2300083C
:1024100043230008472300084B2300084F230008EC
:10242000532300087F230008AD230008AD240008D3
:10243000B1240008B5240008B9240008BD24000810
:10244000C1240008C5240008C9240008CD240008C0
:10245000D124000833230008D5240008D92400081B
:10246000DD240008E1240008E5240008E924000830
:10247000ED240008F1240008F5240008F9240008E0
:10248000FD240008AD2300080125000805250008EB
:10249000092500080D250008112500082926000837
:1024A0002D2600083126000835260008444839E763
:1024B000444837E7444835E7444833E7444831E780
:1024C00044482FE744482DE744482BE7444829E790
:1024D000444827E7444825E7444823E7444821E7A0
:1024E00044481FE744481DE744481BE7444819E7B0
:1024F000444817E7444815E7444813E7444811E7C0
:1025000044480FE744480DE744480BE7444809E7CF
:10251000444807E70C140020101400202E05010881
:102520002C050108300501083205010834050108B1
:1025300038050108400501084A050108520501084F
:102540005A0501085C050108660501086E050108C9
:10255000FB050108710501087405010878050108EB
:102560007B0501087E050108810501088405010835
:1025700087050108FA0401088A0501089805010881
:102580008D050108900501089405010897050108CB
:102590009A0501089D050108A0050108A305010889
:1025A000D5040108A605010875050108A90501085B
:1025B000AC050108AF050108B2050108B505010821
:1025C000B8050108BB050108BE050108C1050108E1
:1025D000E8050108C4050108C7050108CA05010886
:1025E000CD050108D0050108D2050108D50501086F
:1025F000D8050108DB050108DE050108E105010831
:10260000B6050108E4050108E7050108EB05010826
:10261000EF050108F1050108F4050108F7050108B7
:10262000FA050108FD05010803487BE6034879E641
:10263000034877E6034875E691050108000601089E
:10264000030601080606010808B50AF03FFB01224F
:10265000024B1860024B1A7008BD00BFFC1300202B
:10266000F81300202DE9F8434FF00109674F0646A3
:102670000D46C7F800900AF029FBA6F5FC426B79DD
:102680000446A2F1400080B2002B72D0604D2D288C
:102690002B7832D8DFF87C81042B06D8DFE803F0F2
:1026A0002A0326152800FFF71FFD01225A4B1A7036
:1026B0005A4B1E6045F6C050A8F80040FFF7C4FF13
:1026C000002000233B60BDE8F883554BB8F800209C
:1026D0001B889A1AE31A92B29BB29A4204D2FFF76D
:1026E000F9FD01232B70E0E7FFF7FEFC0423F9E777
:1026F000FFF7F0FD85F80090D7E76E3A92B2012A15
:102700001FD8DFF81C81042B06D8DFE803F013186C
:1027100003110700FFF7BCFD424BCAE73D4BB8F879
:1027200000201B889A1AE31A92B29BB29A4204D2F2
:10273000FFF7D0FD02232B70EEE7FFF7A9FD03237F
:10274000F9E70021344A042B117005D8022B0DD86B
:10275000012B05D0022B06D000232B700120B0E7FF
:10276000FFF7C2FCF8E7FFF793FDF5E7FFF7B2FDCF
:10277000F2E72F28F2D8264D2B78013B032B9FD868
:10278000DFE803F0020A112E244B1B689E4297D10A
:10279000FFF7AAFC002319E0224B1B689E428FD151
:1027A000FFF776FDF6E71D4B1B689E4210D11C4BD0
:1027B000184A1B881288E41A9B1AA4B29BB2A3423F
:1027C0000BD3132C09D8FFF78FFC02232B7077E76C
:1027D000144B1B689E427FF473AFFFF77BFDD9E774
:1027E000104B1B689E420FD10A4B0D4A1B88128862
:1027F000E41A9B1AA4B29BB2A342EED3132CECD8DA
:10280000FFF746FD0123E1E7044BE2E70414002053
:10281000141400200A1400200014002010140020BA
:10282000081400200C1400200C4B10B51B685BB979
:102830000B4C2378042B05D8022B0CD8012B04D089
:10284000022B05D00023237010BDFFF74DFCF9E7E4
:10285000FFF71EFDF6E7FFF73DFDF3E70414002048
:102860001414002010B5094C23786BB1084B18885C
:102870000AF031FA40F2DB53984205D90023237065
:10288000BDE81040FFF7D0BF10BD00BFF813002017
:10289000FC13002047F67A62904270B507D847F6DD
:1028A0006F6290421BD8E1282BD0E52845D0944C8C
:1028B000237823B1E52004F027F800232370914CFE
:1028C000237823B1E12003F0D7FF002323708E4C3F
:1028D0002378002B3AD0E52003F0CEFF2BE0A0F5C3
:1028E000FC4071384B79092838D8DFE810F09F0098
:1028F00019016801C10110026E02C6021B037F03A9
:10290000C1034E79814C46B17D4D2B78E3B1E52072
:1029100003F0FAFF00232B7016E07A4D2B7813B1E9
:1029200003F0AAFF2E70784D2B7823B1E52003F039
:10293000A3FF00232B70002307E04E79744C3EB1B7
:102940006F4D2B78002BE3D101232370012070BD44
:102950006C4D2B78002BE6D0E120E1E7002B3CD03A
:102960006A4B6B4D1B786B4CE3B101266A4BE1203F
:102970001E7003F0C9FF634B1E702B782BB1E5204E
:1029800003F0C2FF0122604B1A70637A13B12F204B
:1029900003F0BAFF2F2003F06FFF01225D4B5A7244
:1029A0000020D4E72E78012316B15B4A1370E6E7C6
:1029B0005A4A534D13702B781BB1E52003F0A4FF46
:1029C0002E70237813B11F2003F09EFF1F2003F009
:1029D00053FF01224F4B1A70E2E74F4A1178B9B109
:1029E0004C4C1370637A13B12F2003F08DFF002538
:1029F0006572444C23781BB1E12003F03DFF257044
:102A0000414C237823B1E52003F036FF00232370E7
:102A1000424B1A78002AC3D000253E4C1D70237803
:102A200013B11F2003F070FF2570B9E7002B3CD0D5
:102A3000364B374D1B78374C5BB92E780123FEB1EE
:102A4000354A5370E52003F05FFF01222E4B1A70C8
:102A50000AE00126304BE1205E7003F055FF294B60
:102A60001E702B78002BEDD1E37913B12E2003F0EB
:102A70004BFF2E2003F000FF0122264BDA718FE777
:102A8000264A1F4D53702B781BB1E52003F03CFF05
:102A90002E70637813B1232003F036FF232003F058
:102AA000EBFE01221B4B5A707AE71B4A5178B9B1F1
:102AB000184C5370E37913B12E2003F025FF002545
:102AC000E571104C23781BB1E12003F0D5FE257091
:102AD0000D4C237823B1E52003F0CEFE00232370B4
:102AE0000E4B5A78002A3FF45BAF0025094C5D700D
:102AF000637813B1232003F007FF657050E700BF30
:102B00003414002033140020321400201914002043
:102B100018140020351400201A1400202614002058
:102B2000002B31D0934B944C1B7813B9934B1E78E8
:102B3000A6B10122924B934D9A702B7823B1E120DC
:102B400003F09AFE00232B708F4D2B78002BA0D022
:102B5000E52003F091FE00232B709AE701228B4BB6
:102B60008B4D9A702B781BB1E52003F0CDFE2E70B3
:102B7000A37813B1242003F0C7FE242003F07CFEC9
:102B800001227D4B9A700BE77D4A917841B17A4CD6
:102B90009370637813B1232003F0B6FE00236370B3
:102BA0007A4B9A78002A3FF4FBAE0025724C9D7058
:102BB000A37813B1242003F0A7FEA570F0E6002B44
:102BC0003BD06C4B6C4C1B7813B96C4B1E78F6B138
:102BD00001226B4B6B4DDA702B7823B1E12003F0AF
:102BE0004BFE00232B70684D2B7823B1E52003F0BA
:102BF00043FE00232B70E37A13B1342003F084FEEC
:102C0000342003F039FE01225B4BDA72C8E6012260
:102C10005E4B5F4DDA702B781BB1E52003F074FE3C
:102C20002E70E37813B1252003F06EFE252003F00B
:102C300023FE0122504BDA70B2E6514AD17841B1FD
:102C40004D4CD370E37A13B1342003F05DFE0023C2
:102C5000E3724E4BDA78002A3FF4A2AE0025464CD0
:102C6000DD70E37813B1252003F04EFEE57097E6A2
:102C7000002B31D03F4B404C1B7813B93F4B1E7893
:102C8000A6B101223E4B3F4D1A712B7823B1E120B2
:102C900003F0F2FD00232B703B4D2B78002BC0D0AE
:102CA000E52003F0E9FD00232B70BAE70122374B42
:102CB000374D1A712B781BB1E52003F025FE2E70DD
:102CC000237913B1262003F01FFE262003F0D4FD44
:102CD0000122294B1A7163E6294A117941B1264C28
:102CE0001371E37813B1252003F00EFE0023E37087
:102CF000264B1A79002A3FF453AE00251E4C1D7155
:102D0000237913B1262003F0FFFD257148E6002B3F
:102D100040D0184B184C1B7813B9184B1E78A6B12D
:102D20000122174B174D5A712B7823B1E12003F084
:102D3000A3FD00232B70144D2B78002BC0D0E52071
:102D400003F09AFD00232B70BAE701220F4B104DC0
:102D50005A712B781BB1E52003F0D6FD2E706379F4
:102D600013B1272003F0D0FD272003F085FD0123B8
:102D7000637115E619140020351400201814002082
:102D80001A140020331400203214002026140020CE
:102D9000341400208D4A517941B18D4C53712379FF
:102DA00013B1262003F0B0FD00232371894B5A791B
:102DB000002A3FF4F5AD0025854C5D71637913B1B0
:102DC000272003F0A1FD6571EAE5002B3AD0824B84
:102DD0007F4C1B7813B9814B1E78EEB101227B4BDF
:102DE0007F4D9A712B7823B1E12003F045FD00233C
:102DF0002B707C4D2B7823B1E52003F03DFD0023A3
:102E00002B70237B13B1872003F07EFD872003F016
:102E100033FD01232373C3E501226E4B724D9A717A
:102E20002B781BB1E52003F06FFD2E70A37913B151
:102E30002D2003F069FD2D2003F01EFD0122644BBF
:102E40009A71ADE5614A917941B1614C9371237BEF
:102E500013B1872003F058FD002323735D4B9A794B
:102E6000002A3FF49DAD0025594C9D71A37913B103
:102E70002D2003F049FDA57192E573B3564B544CD8
:102E80001B7813B9554B1B78F3B101224F4B544DAE
:102E9000DA712B7823B1E12003F0EEFC00232B70D4
:102EA000504D2B7823B1E52003F0E6FC00232B7076
:102EB000A37A13B1332003F027FD332003F0DCFCA9
:102EC0000122434B9A726BE50125424BE520DD71EF
:102ED00003F0D2FC444B1D70A8E73C4AD17941B1C4
:102EE0003B4CD371A37A13B1332003F00DFD0023C3
:102EF000A372384BDA79002A3FF452AD0025344CE6
:102F0000DD71A37913B12D2003F0FEFCA571364BC2
:102F10001B78002B3FF444ADE52003F0F5FC0022C4
:102F2000314B58E543B32C4B2C4D1B78284C5BB9E7
:102F30002E780123AEB1254A5372E52003F0E4FC5C
:102F40000122284B1A7056E60126204BE1205E72C2
:102F500003F0DAFC224B1E702B78002B3FF44BAEB3
:102F6000EBE71C4A204D53722B78002BA0D0E520B4
:102F700003F0CAFC2E709BE7144A517AB9B1144C85
:102F80005372E37A13B1342003F0BEFC0025E572DE
:102F9000134C23781BB1E12003F06EFC2570114C1B
:102FA000237823B1E52003F067FC00232370094B4D
:102FB0005A7A002A3FF4F4AC0025054C5D72A37ADE
:102FC00013B1332003F0A0FCA572E9E41A14002029
:102FD0003514002026140020191400201814002095
:102FE0003314002032140020341400202BB3414B42
:102FF000414C1B7813B9414B1B78ABB10122404BBC
:10300000404D9A722B7823B1E12003F035FC002368
:103010002B703D4D2B78002B3FF4D3ACE52003F013
:103020002BFC00232B70CCE40125384BE5209D724E
:1030300003F022FC364B1D709AE5314A917A41B17A
:103040002D4C9372237813B11F2003F05DFC0023F5
:1030500023702E4B9A7A002A3FF4A2AC0025264C0E
:103060009D72A37813B1242003F04EFCA5704EE7A7
:103070002BB3204B204C1B7813B9204B1B78ABB1E2
:1030800001221F4B1F4DDA722B7823B1E12003F090
:10309000F3FB00232B701C4D2B78002B3FF4E4AC8A
:1030A000E52003F0E9FB00232B70DDE40125174B3D
:1030B000E520DD7203F0E0FB154B1D7065E4104A5E
:1030C000D17A41B10C4CD372E37913B12E2003F0C5
:1030D0001BFC0023E3710D4BDA7A002A3FF460AC4D
:1030E0000025054CDD72637A13B12F2003F00CFC30
:1030F00065720CE719140020351400201814002004
:103100001A1400203314002032140020261400204A
:1031100034140020F7B504460D4608F01DFA2B4E76
:103120002B4F7080E0B285424ED90021294A0FE032
:103130001CF801EBBEF1FF0F01D0864518D001331A
:10314000DBB2092BF4D101310C2902F1090239D08B
:1031500094460023ECE7012906D1012B04D100227B
:103160007388ADF8002015E07388ADF8000011E019
:103170003A683AB3122000FB012232F8131032F8F9
:103180001300090A12F8133040BAE4D1002BEBD136
:10319000ADF800308DF80230009806F02FF8C0F33B
:1031A00007238DF80400C0F307408DF805308DF833
:1031B00006009DF8063020469DF804209DF8051075
:1031C00006F01EFD0134ADE703B0F0BD5C0C00203D
:1031D0001C150020E90C0020032806D8D8225043F3
:1031E00000F12401014805F0C7BC704742140020DB
:1031F000074B084A10B51A600023074C2370607013
:1032000008F0AAF960806078BDE81040FFF7E4BFDD
:103210001C150020421400205C0C0020024B187882
:10322000431E5842584170475C0C002070B5114B4A
:103230001B78012B1CD1104A126892B112244878D5
:10324000097804FB00220D4832F81140054630F899
:10325000026BA64207D103F0070335F8133022F8BA
:103260001130012070BD0133092BF0D10023F6E7A6
:103270000020F7E75C0C00201C1500208C060108DC
:10328000704700002DE9FF411D4B1B7893B30022CE
:1032900001AC1146104606F01FFD002527460A2600
:1032A000DFF860800A2241463846FDF7C9FA00F08F
:1032B00005FE0378EAB2B3FBF6F3934200D8E5B912
:1032C00000F0FCFD0378312B03D900239622194628
:1032D00008E000F0F3FD03781D2B4FF00003F5D854
:1032E0001A4696212078013506F08AFC0A2D04F151
:1032F0000104D7D104B0BDE8F08100231A46E6E707
:103300009C3E002009060108F8B50E461446054605
:10331000314F002840D009F0A1FC304B38601A69C9
:10332000500402D51A6911043DD41A69520402D41A
:103330001B691B0439D4294A136913F4804305D04F
:10334000136983F40043C3F3C0335B003278062A69
:1033500096BF23490021895C224A15B9107898420A
:1033600002D15D1A18BF0125022B13701FD0032B49
:1033700026D0012B2DD10223337095B100F0FCFA39
:103380000022214600F082F909F068FC164B186013
:1033900009F036FC012005E0386809F0A3FC32286A
:1033A000B9D80020F8BD0323D0E70123CEE70323DB
:1033B0003370002DF5D000F0DFFA00220621E1E79E
:1033C00001233370002DECD000F0D6FA0022114614
:1033D000D8E7002DE5D0D7E72415002000080040ED
:1033E0009C0601082115002028150020014B1860BB
:1033F000704700BF2815002038B500F05BFD244C55
:10340000027823789A4206D000F054FD0022037817
:103410002370204B1A6000F04DFD0378022B16D06C
:10342000032B04D00BB91B4A1360012038BD194C83
:1034300025689DB909F012FC206000F09DFA044651
:1034400000F09AFA2A460146204601F0C5FC114CCC
:103450002068A8B909F002FC2060E6E7284609F0D8
:1034600041FC47F22F539842F1D909F0F7FB206055
:10347000112000F0D7FE44F620600AF0A6FEE6E731
:1034800009F030FC4EF65F239842CED9E2E700BF48
:10349000201500202815002013B58DF807100DF118
:1034A0000701FFF731FF044608B9FFF7A5FF2046E3
:1034B00002B010BD20224FF480412DE9F0414A486E
:1034C0000CF0A0F800BF00BF00BF00BF00BF00BFEE
:1034D00000BF00BF00BF00BF00BF00BF00BF00BFF4
:1034E00000BF00BF00BF00BF00BF00BF00BF00BFE4
:1034F00000BF00BF302585F3118803220E213A4812
:103500000CF0A0F8002484F3118820224FF400412D
:1035100035480CF077F800BF00BF00BF00BF00BF08
:1035200000BF00BF00BF00BF00BF00BF00BF00BFA3
:1035300000BF00BF00BF00BF00BF00BF00BF00BF93
:1035400000BF00BF00BF85F3118803220F2126486A
:103550000CF078F884F31188244B1B78BBB1092553
:103560004FF00108224E56F8041B4B1C0BD021F0E3
:103570000F0701F00F0108FA01F401222146384635
:103580000CF040F8BC61013D15F0FF05EBD10022C5
:1035900080214FF080400CF035F800BF00BF00BF25
:1035A00000BF00BF00BF00BF00BF00BF00BF00BF23
:1035B00000BF00BF00BF00BF00BF00BF00BF00BF13
:1035C00000BF00BF00BF00BF00BF302383F31188DE
:1035D000012207214FF080400CF034F8002383F3E0
:1035E0001188BDE8F08100BF00080040121F0020D4
:1035F000A4060108072805D00E38012804D80720A2
:1036000000F0BCBA0320FBE77047000008B54FF498
:1036100000124FF080439A614FF000729A61084B9C
:103620001B785BB1112000F0FDFD44F620600AF02C
:10363000CCFDBDE80840022000F0A0BA08BD00BFE4
:10364000121F002010B5084C237863B100F09CFADB
:10365000033801289DBF0023032023700220BDE80A
:10366000104000F07DBA10BD121F002008B500F018
:1036700021FC0378022B03D100F024FC007808BD64
:103680000020FCE700F006BC70470000F8B50C46CF
:1036900016460546F8B921BB154F3B78A34200D129
:1036A0003EB100F007FC0323037000F00BFC002385
:1036B00003703C7004F056F9ACB1A5B900F0EAFB18
:1036C00032462146284601F087FB324621462846ED
:1036D000FFF7DAFFF8BD0029DED1012000F0D2F9B2
:1036E000DAE70220FAE73146204600F009FEE7E774
:1036F0003815002037B500250446CDE9005500F007
:10370000D9FB0378022B07D0084B2A4619780846C4
:10371000FFF7BCFF03B030BD24B108222146684644
:10372000FDF78EF8684600F0E3FCF3E7381500205B
:103730002DE9F04F8FB00E220021814602A8FCF740
:10374000B1FF00F0B7FB0378022B08D05A4B0022E0
:1037500019780846FFF79AFF0FB0BDE8F08FB9F16E
:10376000000F00F0A2804FF01E08002520224946DD
:1037700006A8FDF765F8514F9DF819300DF11904B1
:103780003B7014F8010FFCF749FD08F1FF3828449D
:1037900018F0FF08C5B2F4D1494E4FF0060BB246FF
:1037A0001AF8013F9BB300242246D3B29D420BD8A6
:1037B0009AF80030A34218BF8AF8008022E0013353
:1037C0001E2B04D11C4607E000230DF1190111F84E
:1037D000010F0028F3D0DCB204F138036B4413F876
:1037E0001E0C019202F0BDFF40EAC404E4B221467F
:1037F00006A809F034F99AF80030019AA34202F1C0
:103800000102D2D10BF1FF3B1BF0FF0BC8D149469F
:10381000202206A8FDF714F84FF000084FF0010928
:103820005FFA88F39D420CD8264B24485B68984782
:1038300002A800F076FC8FE701331E2B04D11C4652
:1038400007E000230DF1190212F8011F0029F3D03F
:10385000DCB204F138036B4413F81E0C02F081FF54
:1038600040EAC404E4B2214606A809F0F8F832465A
:10387000002312F8011FA14202D021B93B449C70E1
:1038800008F10108CCE70133062BF2D16F2CF7D8F1
:103890000EAB03EBD40313F8302C04F0070409FA41
:1038A00004F4144303F8304CEAE70822494603487D
:1038B000FCF7F8FEB8E700BF3815002030150020EF
:1038C00031150020600C002037B500250446009516
:1038D0008DF8045000F0EEFA0378022B07D00E4B5F
:1038E0002A4619780846FFF7D1FE03B030BD74B1FF
:1038F00063788DF80030A3788DF80130E3788DF887
:10390000023063798DF8033023798DF804306846EE
:1039100000F04CFCE9E700BF3815002037B5002562
:103920000446ADF8065000F0C5FA0378022B07D024
:10393000104B2A4619780846FFF7A8FE03B030BDA1
:10394000002CFBD0A278637843EA0223ADF806305E
:10395000813B022B09D801220DF1060002FA03F384
:10396000ADF8063000F00EFCE8E70DF1060000F0BF
:10397000F3FBE3E738150020014B1878704700BFD0
:10398000381500207047000010B5FFF7FBFF00F06E
:10399000C7F900F0A1FA01F041F800F08DF8012814
:1039A00003D1BDE8104000F08DB800F0D3F850B955
:1039B000054C206804F0ECFA40F6B733984202D97F
:1039C00004F0D6FA206010BD2C150020FFF7DCBFF4
:1039D00070B5044658B108F041FF0C4B834205D046
:1039E000184608F035FF0122094B1A7070BD00F02F
:1039F00061FA0378022BF9D1044D20466B68984791
:103A00002046AB68BDE87040184700BF600C00203E
:103A1000540F002038B50446A8B108F01FFF154B1D
:103A2000834226D00122144B1A70144B1B699A054D
:103A300004D500F0B1FF124809F09EFDBDE8384002
:103A40000C4808F005BF0E4B1B78042B05D1094D1F
:103A50006B6898472046AB689847084B1B699B05E5
:103A600007D507480BF07DF805480BF095FC00F0F2
:103A70009BFF38BD580F0020063C0020000400408A
:103A8000904D002008B50B4A1178814204D00128DE
:103A9000107002D0022806D008BDFFF7BBFF00203F
:103AA000FFF796FFF8E70120FFF792FF0020FFF7EE
:103AB000B1FFF1E7740C0020014B1878704700BF8C
:103AC000740C002010B50D4B0D4C1B78052B11D13B
:103AD000236813B904F04CFA2060206804F058FA07
:103AE00040F6B733984207D900232360BDE8104061
:103AF00009F07DB80023236010BD00BF904D002069
:103B00003C15002010B50B4C2378052B10D1B4F8D0
:103B10004C309B0708D509F051F828B120460BF02E
:103B2000ABF805480AF051FBBDE8104009F068B851
:103B300010BD00BF904D0020A086010008B5044BC9
:103B40001B78012B01D1FFF7DDFF012008BD00BF6D
:103B5000740C0020014B1878704700BF4C150020F2
:103B6000014B1870704700BF4C15002008B504F0D9
:103B7000FFF9014B186008BD44150020014B187077
:103B8000704700BF42150020014B1878704700BFF6
:103B900042150020302310B583F3118800F04AFC51
:103BA000002484F3118872B600F058FD00F0D0FCB8
:103BB00004F092FA84F3118862B610BD014B1870BC
:103BC000704700BF4115002010B5074C237828B17D
:103BD0001BB1FFF7CBFF0323237010BD002BFCD1DB
:103BE0000122024B1A70F8E74C1500204115002005
:103BF000104B70B51D6800F009FF044620B9002283
:103C00000D4B1A7000240DE0FFF7B6FE18B90B4BF0
:103C10001B78042BF3D0002DF4D0074E33781BB162
:103C200000233370204670BD03F090FEA842E9D314
:103C3000F6E700BF4815002041150020904D0020F8
:103C40000120704708B5FFF7FBFF38B1044B186837
:103C500004F09EF9C72894BF0020012008BD00BFD2
:103C6000441500200120704708B5FFF7FBFF38B16D
:103C7000044B186804F08CF9C72894BF0020012079
:103C800008BD00BF441500200120704708B5FFF7AC
:103C9000FBFF38B1044B186804F07AF9C72894BFC9
:103CA0000020012008BD00BF44150020704700001F
:103CB00008B507F0C7FB003818BF0120044B187087
:103CC00007F0A8FB08F093FFFFF7F0FF08BD00BF67
:103CD00040150020002310B5074C2370FFF796FC19
:103CE000FFF758FF2378054A022B18BF03231370F0
:103CF000FFF7A8FC10BD00BF421500204C150020A6
:103D000008B5064B1B780BB107F06AFB08F078FF8B
:103D100002F06AF8BDE8084003F024BE4015002018
:103D200010B5154C2378032B1BD8DFE803F0020AEB
:103D3000131BFFF75DFFA0B1FFF718FF01232370EE
:103D40000FE0FFF77FFF60B1FFF7B2FFFFF70EFF55
:103D50000223F4E7FFF788FF18B1FFF707FFFFF72B
:103D6000B9FF10BDFFF792FF0028FAD0FFF7C8FF98
:103D7000FFF7FCFE0023E2E74C150020054A064B46
:103D800006495A60116051609A60DA600022196138
:103D90001A707047341D0020501500206415002053
:103DA0002DE9F041174C0E466768A56807F59C7829
:103DB0004545E36804D19F4206D10020BDE8F0816B
:103DC00005F108029342F7E70F4B22699A1A312A4C
:103DD0009CBFA3F2CF732361322EEED82369014634
:103DE00032461846FCF72CFD03464545334428600F
:103DF00023616B6002D1A7600120DFE70835A56071
:103E0000FAE700BF50150020331D0020074A10B507
:103E1000D3689268934207D0D3E90014641A22460B
:103E2000FCF70EFD204610BD0024FBE750150020D6
:103E3000074BDA6899688A4208D0596801F59C7086
:103E4000824201D1D96070470832DA60704700BF02
:103E500050150020014B1878704700BF5015002006
:103E6000014B1870704700BF501500200246002318
:103E700030B5441812F8015B2B44A242DBB2F9D1F1
:103E8000435430BD0120704708B5FFF7FBFF08BD64
:103E90007047000008B54FF4E13009F06FF9FFF703
:103EA0006DFFBDE80840242200210148FCF7FABB61
:103EB000C81E002000487047750C0020004870475D
:103EC000780C002000487047760C002018B111B122
:103ED00089B209F083B9704773B5FFF7BBFF0328B8
:103EE0000FD8DFE800F040022D3B774B186804F054
:103EF0004FF80A2805D900220220744B1A70FFF7E8
:103F0000AFFF734D734C09F073F9002856D009F0D8
:103F10005BF92A68012A38D0022A3ED0002A5BD1F8
:103F200061282FD85F2804D8A0F15A03DBB2032BF5
:103F3000E9D8012302222B60674B20701A70E2E758
:103F4000624A13780133DBB2282B02D813700020A9
:103F5000D5E700231370FFF76BFFF8E7FFF768FF63
:103F60000020FFF77DFF5D48FFF750FF0146002866
:103F7000C7D05A48FFF7AAFF03F0FAFF524B186068
:103F80000120BCE7AF28BED1D3E70223524A2B6001
:103F900013786070013B1370B5E72378612B0FD164
:103FA00063780D2B18D10A2816D1FFF753FF01288B
:103FB00002D10320FFF754FF00232B6002B070BD35
:103FC000AF2B09D16378602B06D103232B60424BC2
:103FD000A0700130187096E73F49531C2B600B7896
:103FE000A054013BDBB20B70002B8CD11946394831
:103FF00010F8016B013133448A42DBB2F8D8A25C7D
:104000009A422AD10322364901A8FCF719FC032160
:1040100001A809F0E3F820462978FFF735FF0028CA
:10402000CCD02378602B0AD8592B16D95A3B062BB3
:1040300013D8DFE803F015193A3E12124200AF2BF5
:104040000BD1A678202E08D1264932462648FCF707
:10405000F7FB31462448FFF71BFF00232B6052E794
:104060006278224B5A70F8E76378313B052BF4D81D
:1040700001A252F823F000BF9140000899400008C7
:104080009F4000085B4000085B400008A540000816
:104090000122164B1A70E0E70222144BFAE70322C2
:1040A000124BF7E70422114BF4E762780F4BDA70FA
:1040B000D3E762780D4B9A70CFE76078431E584281
:1040C0005841FFF781FDC8E7801E00207C1E0020BC
:1040D000781E0020A41E0020741E0020C81E002090
:1040E00014060108A71E0020841E0020750C002065
:1040F0001FB5002301930293ADF80C30A1230822D1
:1041000001460DF105008DF80430FCF799FB01A87C
:104110000921FFF7ABFE0A21FFF742FE05B05DF86B
:1041200004FB30B5102585B004462A4600216846B8
:10413000FCF7B8FAA2230E2221460DF101008DF8FA
:104140000030FCF77DFB68460F21FFF78FFE294604
:10415000FFF726FE05B030BD002307B50193A3236A
:10416000022201460DF105008DF80430FCF768FBD2
:1041700001A80321FFF77AFE0421FFF711FE03B027
:104180005DF804FB002307B58DF80630A4238DF8F5
:1041900004300378022101A88DF80530FFF766FE90
:1041A0000321FFF7FDFD03B05DF804FB002307B515
:1041B0000093ADF804308DF80630A823052201469F
:1041C0000DF101008DF80030FCF73AFB684606213E
:1041D000FFF74CFE0721FFF7E3FD03B05DF804FB9A
:1041E00030B5054687B0152200216846FCF75AFA1B
:1041F0002846FCF721FAC4B2122C11D8A923224672
:1042000029460DF102008DF800308DF80140FCF7D1
:1042100017FBA11C6846FFF729FE1521FFF7C0FD1B
:1042200007B030BD002307B58DF80630A6238DF802
:104230000500022101A88DF80430FFF717FE0321C5
:10424000FFF7AEFD03B05DF804FB30B50C468FB050
:1042500005463122002101A8FCF724FA2E2C11D8A2
:10426000AB23224629460DF106008DF804308DF867
:104270000540FCF7E5FAA11C01A8FFF7F7FDE11CDA
:10428000FFF78EFD0FB030BD30B50C468FB0054640
:104290003122002101A8FCF705FA2E2C11D8AC23FD
:1042A000224629460DF106008DF804308DF80540B0
:1042B000FCF7C6FAA11C01A8FFF7D8FDE11CFFF727
:1042C0006FFD0FB030BD1FB5002304220293ADF87F
:1042D0000C30AD2340EA014001900DEB02010DF1DD
:1042E00009008DF80830FCF7ABFA02A80521FFF7AA
:1042F000BDFD0621FFF754FD05B05DF804FB00008D
:1043000010B50C4606285CD8DFE800F0042C3740D6
:10431000495209001120BDE81040FFF783BF30204B
:10432000FFF780FF002C4CD0264B9B782F2B12D808
:1043300008212548FFF789FF0B212448FFF7A4FF38
:1043400043F22D404EF2C641FFF7BDFF5220FFF76A
:1043500069FF5120DFE712211D48FFF776FF182182
:104360001C48EBE73120FFF75DFF54B35220FFF705
:1043700059FF1948FFF734FFEBE73220FFF752FFF0
:10438000FCB15220FFF74EFF1448F3E73320FFF74C
:1043900049FFB4B15220FFF745FF1148EAE7342046
:1043A000FFF740FF6CB15220FFF73CFF0D48E1E7FB
:1043B0003520FFF737FF24B15220FFF733FF0A48BB
:1043C000D8E710BD750C0020180601082106010869
:1043D000C8060108DA0601082D060108370601089B
:1043E000410601084B0601086006010810B5C4B279
:1043F0000B2C0CBF02200120FFF7C0FB2046FFF76B
:10440000F9F80BF0D8F84FF0FF32014B5A6110BDAC
:10441000001800400023054A0549C2E90013013392
:10442000102B02F10802F8D1704700BFF0490020BC
:10443000ED4300082DE9F041FFF7ECFF00254FF0B8
:1044400001083F4E56F8041B4A1C0CD021F00F0700
:1044500001F00F0108FA01F4214605223846240430
:104460000BF0D0F8BC610135EDB2092DEAD10C2476
:1044700001263027334D55F8040B431C2ED000F095
:104480000F01202206FA01F120F00F000BF0BAF81C
:1044900000BF00BF00BF00BF00BF00BF00BF00BF24
:1044A00000BF00BF00BF00BF00BF00BF00BF00BF14
:1044B00000BF00BF00BF00BF00BF00BF00BF00BF04
:1044C00087F3118855F8040C032200F00F0120F047
:1044D0000F000BF0B7F8002383F31188013C14F0B0
:1044E000FF04C8D122464FF4006117480BF08AF848
:1044F00000BF00BF00BF00BF00BF00BF00BF00BFC4
:1045000000BF00BF00BF00BF00BF00BF00BF00BFB3
:1045100000BF00BF00BF00BF00BF00BF00BF00BFA3
:10452000302383F3118803220B2107480BF08AF80C
:1045300084F31188FEF7BEFFBDE8F0410BF01CB814
:10454000F406010818070108000800407047000041
:1045500008B509F06DF8124B4FF400619A6C1148E0
:1045600042F4C0629A649A6C9A6C42F480429A64F3
:104570009A6CDA6C42F00802DA64DA6C9A6C42F4F3
:1045800080529A649A6CDA6C42F01002DA6440F25B
:104590008232DB6C0BF036F8FFF7D8FF08BD00BFA6
:1045A000000C0140000800404FF0E02238B51369CC
:1045B000012423F001031361224A234B5A61002294
:1045C0000021930003F1604303F56143D3F8000138
:1045D000CDB2012D94BF002000F0010008B1C3F856
:1045E000804101312029F1D10132082AE8D1174C4C
:1045F000636843F000736360154B1A6802F00902A8
:104600001A601A6842F46C3242F004021A6040F2F6
:10461000B3321A620F4B43F001039847236943F00A
:104620000403236130BF0C4B43F0010398474FF064
:10463000E022236923F004032361136943F001039B
:10464000136138BDFFFF07000018004000ED00E0D7
:1046500000000140B00C00207C0C0020FFF7A4BF3C
:104660000B8807B5A3F5FC43032B1FD8DFE803F045
:1046700002223D58374A012013789278C3F342034F
:1046800002F007020DF107018DF80730FEF73CFE3E
:104690009DF80720042A09D81523D340D90705D54A
:1046A000FFF76AF901221146FEF7F0FF002003B080
:1046B0005DF804FB274A012013789278C3F3420384
:1046C00002F007020DF107018DF80730FEF71CFE1E
:1046D0009DF80720042AE9D81523D340DA07E5D549
:1046E000FFF74AF901220221DEE71A4A0120137876
:1046F0009278C3F3420302F007020DF107018DF82F
:104700000730FEF701FE9DF80720042ACED81523B6
:10471000D340DB07CAD5FFF72FF901220321C3E7F6
:104720000C4A012013789278C3F3420302F0070287
:104730000DF107018DF80730FEF7E6FD9DF8073013
:10474000DA1E012A01D9002BB0D1FFF715F9012299
:104750000621A9E71048002008B540F282324FF444
:1047600000714FF080400AF04DFFBDE8084040F274
:1047700082324FF480614FF080400AF043BF000066
:1047800010B50A4C238803F00E0363F0FE03238068
:10479000A37823F00F0343F00103A370FEF770FD2D
:1047A0002068BDE8104003F05DB800BF104800204D
:1047B000002310B586B08DF80C3004938DF81430BA
:1047C00055238DF80830052304AC8DF809008DF8C9
:1047D0000A108DF80B201946009402AA0F2004F04D
:1047E000CBF806B010BD7FB5042200210DF1090001
:1047F000FBF758FF002204AB04928DF814200093BD
:10480000BB2205238DF80820194602AA0F2004F0C8
:10481000B3F807B05DF804FB08B503F020F8044BCB
:10482000186018B9BDE80840FFF7AABF08BD00BF6F
:104830001048002010B5084C00224FF400712046AB
:104840000AF0E0FE23699B0502D40120FFF71AF964
:10485000BDE8104003F0C3B80004004038B5C825D7
:1048600009F08CFA044610B10124204638BD013D00
:104870004FF47A70ADB209F0A8FC002DF0D1034BD3
:104880001B699B05F0D409F06DFAEEE700040040C7
:1048900010B53A4CFFF7C0FFE378A52B06D10023F3
:1048A000E370206802F0DEFF08F034FA01222021D4
:1048B0004FF080400AF0A6FE06F04EFE18B14FF011
:1048C000804320229A6101224FF480714FF0804092
:1048D0000AF098FE06F040FE20B14FF080434FF4FE
:1048E00080729A6120224FF4804125480AF08AFEA6
:1048F00020224FF4004122480AF084FE4FF4003396
:1049000020480122836102210AF07CFE00228021DE
:104910004FF080400AF076FE20224FF400414FF025
:1049200080400AF06FFEFEF7ADFE08F097F9164BD7
:10493000186003F055F820780009FEF759FC06F0DE
:10494000F3FD124BC0F307221870C0F307405A70F2
:10495000987003F00DFD28B103F004FD10B901209B
:10496000FFF790F8FFF7AAFA094B027809491A7085
:104970000F20BDE8104003F0F1BF00BF1048002039
:1049800000080040000400401C1F00200C480020CC
:10499000A03E0020A55D00084FF40032014B9A6153
:1049A000704700BF000400400222014B9A6170472B
:1049B000000400404FF080434FF400129A614FF022
:1049C00080729A6108F0F8B810B506F0C5FD18B10C
:1049D0004FF0804320229A6106F0BEFD20B14FF0D7
:1049E00080434FF480729A61FEF7C6FF0446FEF7DB
:1049F000C3FF002201462046FEF748FE08F0DDF81E
:104A000008F02CF9BDE81040FEF7F0BC08B5FEF741
:104A1000B3FF003818BF012008BD000038B503F00F
:104A2000A7FC40BB164D174C2868C8B108F05AF9CE
:104A3000632815D97020FFF7F5FB5520FFF7F2FB2F
:104A40005720FFF7EFFB0022217811F00E0F0CBF6B
:104A500001201046C1F34201FEF718FE00232B602F
:104A6000A27821780020BDE8384002F00702C1F3A7
:104A70004201FEF711BD03F075FC0028D2D138BD0C
:104A80001C1F002010480020574B37B51880A0F598
:104A9000FC400C46032800F2A480DFE800F0023A54
:104AA0005D80524A012013789278C3F3420302F0EA
:104AB00007020DF107018DF80730FEF725FC9DF880
:104AC0000720042A22D81523D340D9071ED565799B
:104AD000474C9DB1FEF750FF012805D0FEF74CFF73
:104AE00000220121FEF7D2FD23785BB940F6B830F1
:104AF0003D4A404907F06CF9207003E0207807F048
:104B000075F9257008F0AAF8FEF770FC002003B0D4
:104B100030BD364A012013789278C3F3420302F085
:104B200007020DF107018DF80730FEF7EDFB9DF848
:104B30000720042AEAD81523D340DA07E6D5657999
:104B40002B4C002DDAD0FEF717FF0228CCD0FEF751
:104B500013FF00220221C5E7244A0120137892782E
:104B6000C3F3420302F007020DF107018DF807308D
:104B7000FEF7CAFB9DF80720042AC7D81523D340A7
:104B8000DB07C3D565791A4C002DB7D0FEF7F4FECC
:104B90000328A9D0FEF7F0FE00220321A2E7134A62
:104BA000012013789278C3F3420302F007020DF15B
:104BB00007018DF80730FEF7A7FB9DF80730DA1ED6
:104BC000012A01D9002BA1D16579094C002D95D07E
:104BD000FEF7D2FE062887D0FEF7CEFE0022062181
:104BE00080E7012093E700BFFA1E00201048002054
:104BF000F91E00206146000813B506F04FFC01289D
:104C0000374C0CD106F090FCC0F3072310F0FF00E6
:104C10008DF8053013D1DBB2C3B1032323702378A1
:104C20000133DBB20B2B237020D10023237006F05D
:104C3000E9FB23782B4AD05C06F02DFC22E0782893
:104C400010D005D8282809D0502809D00923E5E735
:104C5000A02809D0C828F9D10823DFE70423DDE71D
:104C60000523DBE70623D9E70723D7E70A2BDED1A5
:104C700006F05AFCFF21C0F30742002006F051FC69
:104C800006F0D8FB06F050FC2378C0F30742092B4E
:104C900024D8DFE803F01D2323050C0F1215181B81
:104CA000FF21002002B0BDE8104006F03ABCFF2111
:104CB0002820F7E7FF215020F4E7FF217820F1E7D3
:104CC000FF21A020EEE7FF21C820EBE70021E8E765
:104CD000FF2002B0BDE8104006F0B4BCC820F8E7E1
:104CE000F81E0020D80C0020FDF7BCBD4FF080421C
:104CF00038B51369224803F08001C3F3C013037071
:104D00001369204803F40042C3F3C033037069B34E
:104D1000002A0CBF642466241B4D286840BB07F0A2
:104D20009DFF28602046FFF77DFA5320FFF77AFAAF
:104D300003F01EFB10B3154C206807F0D3FFB0F54D
:104D4000FA6F1BD907F08AFF2060FFF7B7F8104D04
:104D500003782B70FEF710FE0446FEF70DFE2A784E
:104D600001462046BDE83840FFF722BD6524D3E761
:104D700007F0B8FFB0F57A7FD1D8D9E738BD00BFCA
:104D8000191F0020181F0020F41E0020F01E002014
:104D9000A03E002073B5154606461C46019107F05B
:104DA0005DFF084B03221860074B64001E60074B31
:104DB00001A91D60064B07481C60FBF741FD02B0CE
:104DC00070BD00BF0C1F0020001F0020081F002026
:104DD000041F0020FC1E0020F7B5524B524D0E461A
:104DE0002F7814461A70FEF7C7FDC7F342078742B3
:104DF00013D0FEF7C1FD2B7800F0070060F34303EA
:104E00002B7003F00E032BB103289EBFAB7860F329
:104E10000203AB70286802F025FD711E05297ED8BB
:104E2000DFE801F0031B2F43576BFF236CB1002217
:104E30008DF80630ADF804200123C8221120019915
:104E400003B0BDE8F040FFF7A5BF8DF806304FF482
:104E5000FA720123ADF80440F0E7FF234CB10022C1
:104E60008DF80630ADF804200123C82212200199E4
:104E7000E6E78DF806304FF4FA720123ADF80440EE
:104E8000F4E7FF234CB100228DF80630ADF8042082
:104E90000123C82213200199D2E78DF806304FF480
:104EA000FA720123ADF80440F4E7FF234CB100226D
:104EB0008DF80630ADF804200123C822292001997D
:104EC000BEE78DF806304FF4FA720123ADF80440C6
:104ED000F4E7FF234CB100228DF80630ADF8042032
:104EE0000123C8222A200199AAE78DF806304FF441
:104EF000FA720123ADF80440F4E7FF23ADF8043063
:104F00003CB10023C8228DF80630012314200199FA
:104F100096E701234FF4FA728DF80640F6E703B0E6
:104F2000F0BD00BF101F00201048002010B5FEF794
:104F3000C1FF0378022B0CD0FEF71EFD0446FEF7DE
:104F40001BFD064B01461A782046FFF745FF01205E
:104F500010BD01F042FC0020FAE700BF101F002046
:104F600070B5164C2068D0B107F0BCFE144B154D3F
:104F70001B68984208D2144B18682B6813F0010381
:104F800013D11A46194614E007F068FE2B6820601A
:104F900033B900232360FFF7C9FF0028EBD170BDB0
:104FA000013B2B60002BE6D1F3E708498B780A78A8
:104FB0004978BDE8704004F023BE00BF0C1F0020FC
:104FC000081F0020041F0020001F0020FC1E0020DE
:104FD000F7B50C4C1D46237806461746019173B968
:104FE0000123237007F03AFE6D006060032201A9DF
:104FF00004F11100A760E5602674FBF721FC03B003
:10500000F0BD00BFA43E002010B5134C23780BB3B5
:10501000606807F067FEA368984210D307F01EFE91
:10502000E36860603BB90023237063600023207C49
:105030001A4619460AE0013BE360002BF3D0E3680F
:10504000207CDB07F2D5E37C627CA17CBDE81040CC
:1050500004F0D6BD10BD00BFA43E0020254B13B503
:105060001C78B4B1244B25491A78254B1B785BB1C9
:1050700000230B60002A3AD01A46FF213F2002B0DD
:10508000BDE8104004F0BCBD0B6082B3FF2219469E
:10509000F4E7FEF713FF03780F2B26D8FF238DF8D4
:1050A0000640ADF80430FA2201233F200199FFF7B2
:1050B0008FFFFEF703FF0378CBB9104C236813B9B9
:1050C00007F0CCFD2060206888B107F00BFE4EF69B
:1050D000602398420BD9002301202360094B1870EC
:1050E00002B0BDE81040FEF769BD044B1C6002B081
:1050F00010BD00BF191F0020111F0020EC1E002052
:10510000181F0020121F00202DE9F34106461D46FE
:10511000182000231746134A019100FB03F112F8EF
:1051200001808C18B8F1000F17D10123535407F0F8
:1051300095FD6D006060032201A904F11100A760D4
:10514000E5602674FBF77CFBFF2E0ABF064BC4F814
:105150001480636102B0BDE8F0810133632BDCD1C0
:10516000F8E700BFC43E0020ED5100081FB5002441
:10517000ADF800408DF8024000990123FA22362054
:10518000FFF7C2FFADF804408DF8064001990123F6
:10519000FA224220FFF7B8FFADF808408DF80A4028
:1051A00002990123FA224320FFF7AEFF0123FA22DE
:1051B0004120ADF80C408DF80E40039904B0BDE8D5
:1051C0001040FFF7A1BF41F2100307B5ADF804305E
:1051D00010238DF80630FA220323FF200199FFF7F0
:1051E00093FF012003B05DF804FB00001822124B6E
:1051F00082B002FB0030837C6E2B0ED1427CC2B9A0
:10520000C27CB2B9ADF804308DF806200123FA2231
:10521000FF20019902B0FFF777BF53B9437C6E2B93
:1052200007D1C37C2BB9ADF804306F238DF806305D
:10523000ECE702B0704700BFC43E0020094A0023DB
:10524000114610B5147C844206D118225343002223
:10525000C818C260CA5410BD0133632B02F1180292
:10526000F0D1F8E7C43E0020F7B505460C4600F043
:10527000DDFD002876D0A04B1A783AB162792AB1C8
:105280000022114610461A7004F026FDFEF712FEA9
:105290000378022B03D107F0E1FCFEF7A7F845F2F3
:1052A00023239D4207D047F621039D4212D045F2A9
:1052B00021239D4246D1677967B9FDF7AFFF48B119
:1052C0008E4E337823B1214628463770FDF7AEFF66
:1052D0000123337021462846FFF7D6FB06460028F7
:1052E00040D0452D5ED81D2D3DD91E3D272D3AD8E5
:1052F000DFE815F014023002460268028602A002BE
:10530000BA02D002E602FC02390039003900390045
:1053100039001203280339003900390039003900F7
:10532000390039003900390039003900E6000C0134
:1053300024013C0154016C0184019C01B401CC01A5
:10534000E401FC01FDF76AFF0028C3D0A5F5A443E2
:10535000203B1F2BBED96379002BBBD021462846AA
:10536000FDF764FF0026304603B0F0BDA5F5F0451B
:10537000213D092DF7D801A353F825F0075B00085C
:105380006753000867530008675300086753000815
:1053900067530008135A0008355A0008E7590008F7
:1053A000FF590008B5F5F84F00F0F98240D847F6EC
:1053B0002A039D42D7D847F620039D42D6D8B5F59B
:1053C000A44F00F0558316D8E32D00F0A983E72DF4
:1053D000C9D14B4D288801F0D4F9022840F0BD8393
:1053E000484B1B78DB06BED5FDF718FF0028BAD165
:1053F000E7206379A6E345F202239D4200F0608333
:1054000047F213039D42AED1FDF708FF0028A9D152
:105410006379002BA7D04FF4DC438DF80600ADF87C
:105420000430FA220123FF200199FFF76DFE9AE76D
:1054300047F603439D4200F0CD82A5F5FC452B1FA6
:105440009BB2072B8FD8053D062D00F2B182DFE815
:1054500015F08F038F02A0020700160021002C0018
:105460006379E0202BB101F007FA1D2001F004FA66
:1054700079E701F049FA1D2001F046FA73E76379F4
:10548000E0201BB101F0F8F91B20EFE701F03CFA36
:105490001B20F1E76379E0201BB101F0EDF9062054
:1054A000E4E701F031FA0620E6E76379E0201BB17A
:1054B00001F0E2F91920D9E701F026FA1920DBE71B
:1054C000114B9B78DA067FF54EAF0D4D288801F021
:1054D00058F9022805D1637953B9AF2001F04AF891
:1054E00040E7288801F04DF903287FF43CAFF2E74C
:1054F000AF2001F029F835E7131F0020BF3E002040
:10550000741F00202C480020104800208F4B9B78EF
:10551000DB067FF528AF8E4D288801F032F902288E
:1055200003D1637943B9AA20D8E7288801F029F983
:1055300003287FF418AFF4E7AA20DAE7834B9B78BF
:10554000DF067FF510AF824D288801F01AF9022896
:1055500003D1637943B9A920C0E7288801F011F984
:1055600003287FF400AFF4E7A920C2E7774B9B78CC
:10557000DD067FF5F8AE764D288801F002F90228A5
:1055800003D1637943B9A820A8E7288801F0F9F886
:1055900003287FF4E8AEF4E7A820AAE76B4B9B78DA
:1055A000D8067FF5E0AE6A4D288801F0EAF80228B7
:1055B00003D1637943B9AD2090E7288801F0E1F881
:1055C00003287FF4D0AEF4E7AD2092E75F4B9B78E1
:1055D000D9067FF5C8AE5E4D288801F0D2F80228C2
:1055E00003D1637943B9AC2078E7288801F0C9F882
:1055F00003287FF4B8AEF4E7AC207AE7534B9B78EE
:10560000DA067FF5B0AE524D288801F0BAF80228CC
:1056100003D1637943B9AE2060E7288801F0B1F87F
:1056200003287FF4A0AEF4E7AE2062E7474B9B78F7
:10563000DB067FF598AE464D288801F0A2F80228D7
:1056400003D1637943B9AB2048E7288801F099F882
:1056500003287FF488AEF4E7AB204AE73B4B9B7806
:10566000DF067FF580AE3A4D288801F08AF80228DF
:1056700003D1637943B9B12030E7288801F081F87C
:1056800003287FF470AEF4E7B12032E72F4B9B780C
:10569000DD067FF568AE2E4D288801F072F80228ED
:1056A00003D1637943B9B52018E7288801F069F878
:1056B00003287FF458AEF4E7B5201AE7234B9B7814
:1056C000D8067FF550AE224D288801F05AF80228FE
:1056D00003D1637943B9B22000E7288801F051F87B
:1056E00003287FF440AEF4E7B22002E7174B9B7823
:1056F000D9067FF538AE164D288801F042F8022809
:1057000003D1637943B9B420E8E6288801F039F879
:1057100003287FF428AEF4E7B420EAE60B4B9B782D
:10572000DA067FF520AE0A4D288801F02AF8022813
:1057300009D0288801F025F8032804D03A2063799D
:10574000002B3CD035E0BE206379F9E710480020FB
:10575000741F00209C4B9B78DB067FF504AE9B4DAD
:10576000288801F00EF8022807D0288801F009F8EF
:10577000032802D03B206379E2E7BD206379DFE7AD
:10578000914B9B78DF067FF5EEAD904D288800F0B9
:10579000F8FF022807D0288800F0F3FF032802D082
:1057A0003C206379CCE76379E3202BB101F064F806
:1057B0002B2001F061F8D5E501F0A6F82B2001F0CF
:1057C000A3F8CFE5804B9B78DD067FF5CCAD7F4D10
:1057D000288800F0D6FF022807D0288800F0D1FFE3
:1057E000032802D03D206379AAE76379E3201BB147
:1057F00001F042F80820DCE701F086F80820DEE737
:10580000714B9B78D8067FF5AEAD704D288800F0BF
:10581000B8FF022807D0288800F0B3FF032802D081
:105820003E2063798CE76379002B3FF49BAD05F054
:1058300005FF97E5644B9B78D9067FF594AD634DE2
:10584000288800F09EFF022807D0288800F099FFE2
:10585000032802D03F20637972E76379002B3FF47D
:1058600081AD05F0D7FE7DE5574B9B78DA067FF5D5
:105870007AAD564D288800F084FF022807D028888A
:1058800000F07FFF032802D04020637958E7AC2066
:10589000637955E74C4B9B78DB067FF564AD4B4D48
:1058A000288800F06EFF022807D0288800F069FFE2
:1058B000032802D04120637942E7AE2063793FE7B5
:1058C000414B9B78DF067FF54EAD404D288800F0B8
:1058D00058FF022807D0288800F053FF032802D081
:1058E000422063792CE7AB20637929E7364B9B781C
:1058F000DD067FF538AD354D288800F042FF0228DF
:1059000007D0288800F03DFF032802D043206379A8
:1059100016E7A820637913E72B4B9B78D8067FF511
:1059200022AD2A4D288800F02CFF022807D02888B5
:1059300000F027FF032802D04420637900E7AA2063
:105940006379FDE6204B9B78D9067FF50CAD1F4DA2
:10595000288800F016FF022807D0288800F011FFE1
:10596000032802D045206379EAE6A9206379E7E6B7
:105970006379002B3FF4F6AC134A937883F010015F
:10598000C1F3001161F304139370106801F06AFF12
:10599000E8E462790E4B02B101221A70E3E4637904
:1059A000002B3FF4E0AC01F034FF07F0B3F9DAE488
:1059B000FDF734FC00287FF4D5AC6379002B3FF46D
:1059C000D1ACFFF719F9CDE410480020741F002076
:1059D000111F002063796C4C1BB107F03FF9206068
:1059E000C0E42360BEE46379002B3FF4BCAC05F057
:1059F00031FED6287FF6B7ACFFF7B8FBB3E4637986
:105A0000002B3FF4B0AC05F025FE5F283FF6ABACB1
:105A1000F2E76379002B3FF4A6AC05F0F3FC4FF0FE
:105A2000804320229A614FF480729A6105F012FE41
:105A30007728DFE76379002B3FF495AC05F08CFD08
:105A40001E2811D84FF080434FF400129A614FF096
:105A5000807200249A61002320461A4619460134B8
:105A600004F0CEF8442CF6D105F0F4FD1E28CDE765
:105A70006379002B3FF476AC00210E20FFF7DEFBAC
:105A80004FF6FF73414CADF804308DF80630FA2222
:105A900003230F200199FFF737FB208800F071FEE8
:105AA000022806D1002000F0CAFD002001F052FAC1
:105AB00058E4208800F065FE03287FF453ACF1E73A
:105AC0006379002B3FF44EAC00210F20FFF7B6FBAB
:105AD0004FF6FF732D4CADF804308DF80630FA22E6
